{
  "contractName": "AcrenToken",
  "abi": [
    {
      "inputs": [
        {
          "internalType": "string",
          "name": "_name",
          "type": "string"
        },
        {
          "internalType": "string",
          "name": "_symbol",
          "type": "string"
        },
        {
          "internalType": "uint256",
          "name": "_initialSupply",
          "type": "uint256"
        },
        {
          "internalType": "uint32",
          "name": "_reserveRatio",
          "type": "uint32"
        },
        {
          "internalType": "address",
          "name": "_platformAddress",
          "type": "address"
        },
        {
          "internalType": "uint256",
          "name": "_sellFee",
          "type": "uint256"
        }
      ],
      "stateMutability": "payable",
      "type": "constructor"
    },
    {
      "anonymous": false,
      "inputs": [
        {
          "indexed": true,
          "internalType": "address",
          "name": "owner",
          "type": "address"
        },
        {
          "indexed": true,
          "internalType": "address",
          "name": "spender",
          "type": "address"
        },
        {
          "indexed": false,
          "internalType": "uint256",
          "name": "value",
          "type": "uint256"
        }
      ],
      "name": "Approval",
      "type": "event"
    },
    {
      "anonymous": false,
      "inputs": [
        {
          "indexed": false,
          "internalType": "address",
          "name": "sender",
          "type": "address"
        },
        {
          "indexed": false,
          "internalType": "uint256",
          "name": "amount",
          "type": "uint256"
        },
        {
          "indexed": false,
          "internalType": "uint256",
          "name": "refund",
          "type": "uint256"
        }
      ],
      "name": "Burned",
      "type": "event"
    },
    {
      "anonymous": false,
      "inputs": [
        {
          "indexed": false,
          "internalType": "address",
          "name": "sender",
          "type": "address"
        },
        {
          "indexed": false,
          "internalType": "uint256",
          "name": "amount",
          "type": "uint256"
        },
        {
          "indexed": false,
          "internalType": "uint256",
          "name": "deposit",
          "type": "uint256"
        }
      ],
      "name": "Minted",
      "type": "event"
    },
    {
      "anonymous": false,
      "inputs": [
        {
          "indexed": true,
          "internalType": "address",
          "name": "previousOwner",
          "type": "address"
        },
        {
          "indexed": true,
          "internalType": "address",
          "name": "newOwner",
          "type": "address"
        }
      ],
      "name": "OwnershipTransferred",
      "type": "event"
    },
    {
      "anonymous": false,
      "inputs": [
        {
          "indexed": true,
          "internalType": "address",
          "name": "from",
          "type": "address"
        },
        {
          "indexed": true,
          "internalType": "address",
          "name": "to",
          "type": "address"
        },
        {
          "indexed": false,
          "internalType": "uint256",
          "name": "value",
          "type": "uint256"
        }
      ],
      "name": "Transfer",
      "type": "event"
    },
    {
      "stateMutability": "payable",
      "type": "fallback"
    },
    {
      "inputs": [
        {
          "internalType": "address",
          "name": "owner",
          "type": "address"
        },
        {
          "internalType": "address",
          "name": "spender",
          "type": "address"
        }
      ],
      "name": "allowance",
      "outputs": [
        {
          "internalType": "uint256",
          "name": "",
          "type": "uint256"
        }
      ],
      "stateMutability": "view",
      "type": "function"
    },
    {
      "inputs": [
        {
          "internalType": "address",
          "name": "spender",
          "type": "address"
        },
        {
          "internalType": "uint256",
          "name": "amount",
          "type": "uint256"
        }
      ],
      "name": "approve",
      "outputs": [
        {
          "internalType": "bool",
          "name": "",
          "type": "bool"
        }
      ],
      "stateMutability": "nonpayable",
      "type": "function"
    },
    {
      "inputs": [
        {
          "internalType": "address",
          "name": "account",
          "type": "address"
        }
      ],
      "name": "balanceOf",
      "outputs": [
        {
          "internalType": "uint256",
          "name": "",
          "type": "uint256"
        }
      ],
      "stateMutability": "view",
      "type": "function"
    },
    {
      "inputs": [
        {
          "internalType": "uint256",
          "name": "_supply",
          "type": "uint256"
        },
        {
          "internalType": "uint256",
          "name": "_reserveBalance",
          "type": "uint256"
        },
        {
          "internalType": "uint32",
          "name": "_reserveRatio",
          "type": "uint32"
        },
        {
          "internalType": "uint256",
          "name": "_depositAmount",
          "type": "uint256"
        }
      ],
      "name": "calculatePurchaseReturn",
      "outputs": [
        {
          "internalType": "uint256",
          "name": "",
          "type": "uint256"
        }
      ],
      "stateMutability": "view",
      "type": "function"
    },
    {
      "inputs": [
        {
          "internalType": "uint256",
          "name": "_supply",
          "type": "uint256"
        },
        {
          "internalType": "uint256",
          "name": "_reserveBalance",
          "type": "uint256"
        },
        {
          "internalType": "uint32",
          "name": "_reserveRatio",
          "type": "uint32"
        },
        {
          "internalType": "uint256",
          "name": "_sellAmount",
          "type": "uint256"
        }
      ],
      "name": "calculateSaleReturn",
      "outputs": [
        {
          "internalType": "uint256",
          "name": "",
          "type": "uint256"
        }
      ],
      "stateMutability": "view",
      "type": "function"
    },
    {
      "inputs": [],
      "name": "decimals",
      "outputs": [
        {
          "internalType": "uint8",
          "name": "",
          "type": "uint8"
        }
      ],
      "stateMutability": "view",
      "type": "function"
    },
    {
      "inputs": [
        {
          "internalType": "address",
          "name": "spender",
          "type": "address"
        },
        {
          "internalType": "uint256",
          "name": "subtractedValue",
          "type": "uint256"
        }
      ],
      "name": "decreaseAllowance",
      "outputs": [
        {
          "internalType": "bool",
          "name": "",
          "type": "bool"
        }
      ],
      "stateMutability": "nonpayable",
      "type": "function"
    },
    {
      "inputs": [],
      "name": "defaultFundingRatio",
      "outputs": [
        {
          "internalType": "uint256",
          "name": "",
          "type": "uint256"
        }
      ],
      "stateMutability": "view",
      "type": "function"
    },
    {
      "inputs": [
        {
          "internalType": "address",
          "name": "spender",
          "type": "address"
        },
        {
          "internalType": "uint256",
          "name": "addedValue",
          "type": "uint256"
        }
      ],
      "name": "increaseAllowance",
      "outputs": [
        {
          "internalType": "bool",
          "name": "",
          "type": "bool"
        }
      ],
      "stateMutability": "nonpayable",
      "type": "function"
    },
    {
      "inputs": [],
      "name": "lowerBound",
      "outputs": [
        {
          "internalType": "uint256",
          "name": "",
          "type": "uint256"
        }
      ],
      "stateMutability": "view",
      "type": "function"
    },
    {
      "inputs": [],
      "name": "name",
      "outputs": [
        {
          "internalType": "string",
          "name": "",
          "type": "string"
        }
      ],
      "stateMutability": "view",
      "type": "function"
    },
    {
      "inputs": [],
      "name": "owner",
      "outputs": [
        {
          "internalType": "address",
          "name": "",
          "type": "address"
        }
      ],
      "stateMutability": "view",
      "type": "function"
    },
    {
      "inputs": [],
      "name": "platformAddress",
      "outputs": [
        {
          "internalType": "address",
          "name": "",
          "type": "address"
        }
      ],
      "stateMutability": "view",
      "type": "function"
    },
    {
      "inputs": [],
      "name": "renounceOwnership",
      "outputs": [],
      "stateMutability": "nonpayable",
      "type": "function"
    },
    {
      "inputs": [],
      "name": "reserveRatio",
      "outputs": [
        {
          "internalType": "uint32",
          "name": "",
          "type": "uint32"
        }
      ],
      "stateMutability": "view",
      "type": "function"
    },
    {
      "inputs": [],
      "name": "sellFee",
      "outputs": [
        {
          "internalType": "uint256",
          "name": "",
          "type": "uint256"
        }
      ],
      "stateMutability": "view",
      "type": "function"
    },
    {
      "inputs": [],
      "name": "symbol",
      "outputs": [
        {
          "internalType": "string",
          "name": "",
          "type": "string"
        }
      ],
      "stateMutability": "view",
      "type": "function"
    },
    {
      "inputs": [],
      "name": "totalSupply",
      "outputs": [
        {
          "internalType": "uint256",
          "name": "",
          "type": "uint256"
        }
      ],
      "stateMutability": "view",
      "type": "function"
    },
    {
      "inputs": [
        {
          "internalType": "address",
          "name": "recipient",
          "type": "address"
        },
        {
          "internalType": "uint256",
          "name": "amount",
          "type": "uint256"
        }
      ],
      "name": "transfer",
      "outputs": [
        {
          "internalType": "bool",
          "name": "",
          "type": "bool"
        }
      ],
      "stateMutability": "nonpayable",
      "type": "function"
    },
    {
      "inputs": [
        {
          "internalType": "address",
          "name": "sender",
          "type": "address"
        },
        {
          "internalType": "address",
          "name": "recipient",
          "type": "address"
        },
        {
          "internalType": "uint256",
          "name": "amount",
          "type": "uint256"
        }
      ],
      "name": "transferFrom",
      "outputs": [
        {
          "internalType": "bool",
          "name": "",
          "type": "bool"
        }
      ],
      "stateMutability": "nonpayable",
      "type": "function"
    },
    {
      "inputs": [
        {
          "internalType": "address",
          "name": "newOwner",
          "type": "address"
        }
      ],
      "name": "transferOwnership",
      "outputs": [],
      "stateMutability": "nonpayable",
      "type": "function"
    },
    {
      "inputs": [],
      "name": "upperBound",
      "outputs": [
        {
          "internalType": "uint256",
          "name": "",
          "type": "uint256"
        }
      ],
      "stateMutability": "view",
      "type": "function"
    },
    {
      "inputs": [],
      "name": "version",
      "outputs": [
        {
          "internalType": "string",
          "name": "",
          "type": "string"
        }
      ],
      "stateMutability": "view",
      "type": "function"
    },
    {
      "stateMutability": "payable",
      "type": "receive"
    },
    {
      "inputs": [],
      "name": "Supply",
      "outputs": [
        {
          "internalType": "uint256",
          "name": "",
          "type": "uint256"
        }
      ],
      "stateMutability": "view",
      "type": "function"
    },
    {
      "inputs": [],
      "name": "lowerBoundFundingRatio",
      "outputs": [
        {
          "internalType": "uint256",
          "name": "",
          "type": "uint256"
        }
      ],
      "stateMutability": "view",
      "type": "function"
    },
    {
      "inputs": [],
      "name": "upperBoundFundingRatio",
      "outputs": [
        {
          "internalType": "uint256",
          "name": "",
          "type": "uint256"
        }
      ],
      "stateMutability": "view",
      "type": "function"
    },
    {
      "inputs": [],
      "name": "FundingRatio",
      "outputs": [
        {
          "internalType": "uint256",
          "name": "",
          "type": "uint256"
        }
      ],
      "stateMutability": "view",
      "type": "function"
    },
    {
      "inputs": [],
      "name": "reserveBalance",
      "outputs": [
        {
          "internalType": "uint256",
          "name": "",
          "type": "uint256"
        }
      ],
      "stateMutability": "view",
      "type": "function"
    },
    {
      "inputs": [
        {
          "internalType": "uint256",
          "name": "_depositTokenAmount",
          "type": "uint256"
        }
      ],
      "name": "getMintReward",
      "outputs": [
        {
          "internalType": "uint256",
          "name": "",
          "type": "uint256"
        }
      ],
      "stateMutability": "view",
      "type": "function"
    },
    {
      "inputs": [
        {
          "internalType": "uint256",
          "name": "_bondingTokenAmount",
          "type": "uint256"
        }
      ],
      "name": "getBurnRefund",
      "outputs": [
        {
          "internalType": "uint256",
          "name": "",
          "type": "uint256"
        }
      ],
      "stateMutability": "view",
      "type": "function"
    },
    {
      "inputs": [
        {
          "internalType": "address",
          "name": "_platformAddress",
          "type": "address"
        }
      ],
      "name": "updatePlatform",
      "outputs": [
        {
          "internalType": "bool",
          "name": "",
          "type": "bool"
        }
      ],
      "stateMutability": "nonpayable",
      "type": "function"
    },
    {
      "inputs": [
        {
          "internalType": "uint256",
          "name": "_lowerBound",
          "type": "uint256"
        },
        {
          "internalType": "uint256",
          "name": "_upperBound",
          "type": "uint256"
        },
        {
          "internalType": "uint256",
          "name": "_defaultFundingRatio",
          "type": "uint256"
        }
      ],
      "name": "updateRatioConfiguration",
      "outputs": [
        {
          "internalType": "bool",
          "name": "",
          "type": "bool"
        }
      ],
      "stateMutability": "nonpayable",
      "type": "function"
    },
    {
      "inputs": [],
      "name": "contribute",
      "outputs": [
        {
          "internalType": "bool",
          "name": "",
          "type": "bool"
        }
      ],
      "stateMutability": "payable",
      "type": "function"
    },
    {
      "inputs": [
        {
          "internalType": "uint256",
          "name": "_percentageFunding",
          "type": "uint256"
        }
      ],
      "name": "contribute",
      "outputs": [
        {
          "internalType": "bool",
          "name": "",
          "type": "bool"
        }
      ],
      "stateMutability": "payable",
      "type": "function"
    },
    {
      "inputs": [
        {
          "internalType": "uint256",
          "name": "_percentageFunding",
          "type": "uint256"
        },
        {
          "internalType": "address",
          "name": "_campaign",
          "type": "address"
        }
      ],
      "name": "contribute",
      "outputs": [
        {
          "internalType": "bool",
          "name": "",
          "type": "bool"
        }
      ],
      "stateMutability": "payable",
      "type": "function"
    },
    {
      "inputs": [
        {
          "internalType": "uint256",
          "name": "_amount",
          "type": "uint256"
        },
        {
          "internalType": "uint256",
          "name": "_percentage",
          "type": "uint256"
        }
      ],
      "name": "calculate",
      "outputs": [
        {
          "internalType": "uint256",
          "name": "calculatedFundingAmount",
          "type": "uint256"
        },
        {
          "internalType": "uint256",
          "name": "calculatedTokenAmount",
          "type": "uint256"
        }
      ],
      "stateMutability": "pure",
      "type": "function"
    },
    {
      "inputs": [
        {
          "internalType": "address",
          "name": "_user",
          "type": "address"
        },
        {
          "internalType": "uint256",
          "name": "_amount",
          "type": "uint256"
        }
      ],
      "name": "unlock",
      "outputs": [
        {
          "internalType": "bool",
          "name": "",
          "type": "bool"
        }
      ],
      "stateMutability": "payable",
      "type": "function"
    },
    {
      "inputs": [],
      "name": "buy",
      "outputs": [
        {
          "internalType": "bool",
          "name": "",
          "type": "bool"
        }
      ],
      "stateMutability": "payable",
      "type": "function"
    },
    {
      "inputs": [
        {
          "internalType": "uint256",
          "name": "_amount",
          "type": "uint256"
        }
      ],
      "name": "sell",
      "outputs": [
        {
          "internalType": "bool",
          "name": "",
          "type": "bool"
        }
      ],
      "stateMutability": "payable",
      "type": "function"
    },
    {
      "inputs": [
        {
          "internalType": "uint256",
          "name": "_amount",
          "type": "uint256"
        },
        {
          "internalType": "address",
          "name": "_campaign",
          "type": "address"
        }
      ],
      "name": "sell",
      "outputs": [
        {
          "internalType": "bool",
          "name": "",
          "type": "bool"
        }
      ],
      "stateMutability": "payable",
      "type": "function"
    }
  ],
  "bytecode": "0x60806040526040518060400160405280600381526020017f302e330000000000000000000000000000000000000000000000000000000000815250600790805190602001906200005192919062001456565b506040516200616838038062006168833981810160405260c08110156200007757600080fd5b81019080805160405193929190846401000000008211156200009857600080fd5b83820191506020820185811115620000af57600080fd5b8251866001820283011164010000000082111715620000cd57600080fd5b8083526020830192505050908051906020019080838360005b8381101562000103578082015181840152602081019050620000e6565b50505050905090810190601f168015620001315780820380516001836020036101000a031916815260200191505b50604052602001805160405193929190846401000000008211156200015557600080fd5b838201915060208201858111156200016c57600080fd5b82518660018202830111640100000000821117156200018a57600080fd5b8083526020830192505050908051906020019080838360005b83811015620001c0578082015181840152602081019050620001a3565b50505050905090810190601f168015620001ee5780820380516001836020036101000a031916815260200191505b50604052602001805190602001909291908051906020019092919080519060200190929190805190602001909291905050508585600062000234620011e060201b60201c565b9050806000806101000a81548173ffffffffffffffffffffffffffffffffffffffff021916908373ffffffffffffffffffffffffffffffffffffffff1602179055508073ffffffffffffffffffffffffffffffffffffffff16600073ffffffffffffffffffffffffffffffffffffffff167f8be0079c531659141344cd1fd0a4f28419497f9722a3daafe3b4186f6b6457e060405160405180910390a3508160049080519060200190620002ea92919062001456565b5080600590805190602001906200030392919062001456565b506012600660006101000a81548160ff021916908360ff1602179055505050701c35fedd14ffffffffffffffffffffffff60086020608081106200034357fe5b0181905550701b0ce43b323fffffffffffffffffffffff60086021608081106200036957fe5b01819055507019f0028ec1ffffffffffffffffffffffff60086022608081106200038f57fe5b01819055507018ded91f0e7fffffffffffffffffffffff6008602360808110620003b557fe5b01819055507017d8ec7f0417ffffffffffffffffffffff6008602460808110620003db57fe5b01819055507016ddc6556cdbffffffffffffffffffffff60086025608081106200040157fe5b01819055507015ecf52776a1ffffffffffffffffffffff60086026608081106200042757fe5b01819055507015060c256cb2ffffffffffffffffffffff60086027608081106200044d57fe5b0181905550701428a2f98d72ffffffffffffffffffffff60086028608081106200047357fe5b01819055507013545598e5c23fffffffffffffffffffff60086029608081106200049957fe5b0181905550701288c4161ce1dfffffffffffffffffffff6008602a60808110620004bf57fe5b01819055507011c592761c666fffffffffffffffffffff6008602b60808110620004e557fe5b018190555070110a688680a757ffffffffffffffffffff6008602c608081106200050b57fe5b0181905550701056f1b5bedf77ffffffffffffffffffff6008602d608081106200053157fe5b0181905550700faadceceeff8bffffffffffffffffffff6008602e608081106200055757fe5b0181905550700f05dc6b27edadffffffffffffffffffff6008602f608081106200057d57fe5b0181905550700e67a5a25da4107fffffffffffffffffff6008603060808110620005a357fe5b0181905550700dcff115b14eedffffffffffffffffffff6008603160808110620005c957fe5b0181905550700d3e7a392431239fffffffffffffffffff6008603260808110620005ef57fe5b0181905550700cb2ff529eb71e4fffffffffffffffffff60086033608081106200061557fe5b0181905550700c2d415c3db974afffffffffffffffffff60086034608081106200063b57fe5b0181905550700bad03e7d883f69bffffffffffffffffff60086035608081106200066157fe5b0181905550700b320d03b2c343d5ffffffffffffffffff60086036608081106200068757fe5b0181905550700abc25204e02828dffffffffffffffffff6008603760808110620006ad57fe5b0181905550700a4b16f74ee4bb207fffffffffffffffff6008603860808110620006d357fe5b01819055507009deaf736ac1f569ffffffffffffffffff6008603960808110620006f957fe5b0181905550700976bd9952c7aa957fffffffffffffffff6008603a608081106200071f57fe5b01819055507009131271922eaa606fffffffffffffffff6008603b608081106200074557fe5b01819055507008b380f3558668c46fffffffffffffffff6008603c608081106200076b57fe5b0181905550700857ddf0117efa215bffffffffffffffff6008603d608081106200079157fe5b01819055507007ffffffffffffffffffffffffffffffff6008603e60808110620007b757fe5b01819055507007abbf6f6abb9d087fffffffffffffffff6008603f60808110620007dd57fe5b018190555070075af62cbac95f7dfa7fffffffffffffff60086040608081106200080357fe5b018190555070070d7fb7452e187ac13fffffffffffffff60086041608081106200082957fe5b01819055507006c3390ecc8af379295fffffffffffffff60086042608081106200084f57fe5b018190555070067c00a3b07ffc01fd6fffffffffffffff60086043608081106200087557fe5b0181905550700637b647c39cbb9d3d27ffffffffffffff60086044608081106200089b57fe5b01819055507005f63b1fc104dbd39587ffffffffffffff6008604560808110620008c157fe5b01819055507005b771955b36e12f7235ffffffffffffff6008604660808110620008e757fe5b018190555070057b3d49dda84556d6f6ffffffffffffff60086047608081106200090d57fe5b018190555070054183095b2c8ececf30ffffffffffffff60086048608081106200093357fe5b018190555070050a28be635ca2b888f77fffffffffffff60086049608081106200095957fe5b01819055507004d5156639708c9db33c3fffffffffffff6008604a608081106200097f57fe5b01819055507004a23105873875bd52dfdfffffffffffff6008604b60808110620009a557fe5b0181905550700471649d87199aa990756fffffffffffff6008604c60808110620009cb57fe5b01819055507004429a21a029d4c1457cfbffffffffffff6008604d60808110620009f157fe5b0181905550700415bc6d6fb7dd71af2cb3ffffffffffff6008604e6080811062000a1757fe5b01819055507003eab73b3bbfe282243ce1ffffffffffff6008604f6080811062000a3d57fe5b01819055507003c1771ac9fb6b4c18e229ffffffffffff600860506080811062000a6357fe5b0181905550700399e96897690418f785257fffffffffff600860516080811062000a8957fe5b0181905550700373fc456c53bb779bf0ea9fffffffffff600860526080811062000aaf57fe5b018190555070034f9e8e490c48e67e6ab8bfffffffffff600860536080811062000ad557fe5b018190555070032cbfd4a7adc790560b3337ffffffffff600860546080811062000afb57fe5b018190555070030b50570f6e5d2acca94613ffffffffff600860556080811062000b2157fe5b01819055507002eb40f9f620fda6b56c2861ffffffffff600860566080811062000b4757fe5b01819055507002cc8340ecb0d0f520a6af58ffffffffff600860576080811062000b6d57fe5b01819055507002af09481380a0a35cf1ba02ffffffffff600860586080811062000b9357fe5b0181905550700292c5bdd3b92ec810287b1b3fffffffff600860596080811062000bb957fe5b0181905550700277abdcdab07d5a77ac6d6b9fffffffff6008605a6080811062000bdf57fe5b018190555070025daf6654b1eaa55fd64df5efffffffff6008605b6080811062000c0557fe5b0181905550700244c49c648baa98192dce88b7ffffffff6008605c6080811062000c2b57fe5b018190555070022ce03cd5619a311b2471268bffffffff6008605d6080811062000c5157fe5b0181905550700215f77c045fbe885654a44a0fffffffff6008605e6080811062000c7757fe5b01819055507001ffffffffffffffffffffffffffffffff6008605f6080811062000c9d57fe5b01819055507001eaefdbdaaee7421fc4d3ede5ffffffff600860606080811062000cc357fe5b01819055507001d6bd8b2eb257df7e8ca57b09bfffffff600860616080811062000ce957fe5b01819055507001c35fedd14b861eb0443f7f133fffffff600860626080811062000d0f57fe5b01819055507001b0ce43b322bcde4a56e8ada5afffffff600860636080811062000d3557fe5b018190555070019f0028ec1fff007f5a195a39dfffffff600860646080811062000d5b57fe5b018190555070018ded91f0e72ee74f49b15ba527ffffff600860656080811062000d8157fe5b018190555070017d8ec7f04136f4e5615fd41a63ffffff600860666080811062000da757fe5b018190555070016ddc6556cdb84bdc8d12d22e6fffffff600860676080811062000dcd57fe5b018190555070015ecf52776a1155b5bd8395814f7fffff600860686080811062000df357fe5b018190555070015060c256cb23b3b3cc3754cf40ffffff600860696080811062000e1957fe5b01819055507001428a2f98d728ae223ddab715be3fffff6008606a6080811062000e3f57fe5b018190555070013545598e5c23276ccf0ede68034fffff6008606b6080811062000e6557fe5b01819055507001288c4161ce1d6f54b7f61081194fffff6008606c6080811062000e8b57fe5b018190555070011c592761c666aa641d5a01a40f17ffff6008606d6080811062000eb157fe5b0181905550700110a688680a7530515f3e6e6cfdcdffff6008606e6080811062000ed757fe5b01819055507001056f1b5bedf75c6bcb2ce8aed428ffff6008606f6080811062000efd57fe5b01819055506ffaadceceeff8a0890f3875f008277fff600860706080811062000f2257fe5b01819055506ff05dc6b27edad306388a600f6ba0bfff600860716080811062000f4757fe5b01819055506fe67a5a25da41063de1495d5b18cdbfff600860726080811062000f6c57fe5b01819055506fdcff115b14eedde6fc3aa5353f2e4fff600860736080811062000f9157fe5b01819055506fd3e7a3924312399f9aae2e0f868f8fff600860746080811062000fb657fe5b01819055506fcb2ff529eb71e41582cccd5a1ee26fff600860756080811062000fdb57fe5b01819055506fc2d415c3db974ab32a51840c0b67edff60086076608081106200100057fe5b01819055506fbad03e7d883f69ad5b0a186184e06bff60086077608081106200102557fe5b01819055506fb320d03b2c343d4829abd6075f0cc5ff60086078608081106200104a57fe5b01819055506fabc25204e02828d73c6e80bcdb1a95bf60086079608081106200106f57fe5b01819055506fa4b16f74ee4bb2040a1ec6c15fbbf2df6008607a608081106200109457fe5b01819055506f9deaf736ac1f569deb1b5ae3f36c130f6008607b60808110620010b957fe5b01819055506f976bd9952c7aa957f5937d790ef650376008607c60808110620010de57fe5b01819055506f9131271922eaa6064b73a22d0bd4f2bf6008607d608081106200110357fe5b01819055506f8b380f3558668c46c91c49a2f8e967b96008607e608081106200112857fe5b01819055506f857ddf0117efa215952912839f6473e66008607f608081106200114d57fe5b018190555082608960006101000a81548163ffffffff021916908363ffffffff16021790555080608e8190555081608f60006101000a81548173ffffffffffffffffffffffffffffffffffffffff021916908373ffffffffffffffffffffffffffffffffffffffff160217905550620011cd3385620011e860201b60201c565b3460888190555050505050505062001505565b600033905090565b600073ffffffffffffffffffffffffffffffffffffffff168273ffffffffffffffffffffffffffffffffffffffff1614156200128c576040517f08c379a000000000000000000000000000000000000000000000000000000000815260040180806020018281038252601f8152602001807f45524332303a206d696e7420746f20746865207a65726f20616464726573730081525060200191505060405180910390fd5b620012a060008383620013c860201b60201c565b620012bc81600354620013cd60201b620027971790919060201c565b6003819055506200131b81600160008573ffffffffffffffffffffffffffffffffffffffff1673ffffffffffffffffffffffffffffffffffffffff16815260200190815260200160002054620013cd60201b620027971790919060201c565b600160008473ffffffffffffffffffffffffffffffffffffffff1673ffffffffffffffffffffffffffffffffffffffff168152602001908152602001600020819055508173ffffffffffffffffffffffffffffffffffffffff16600073ffffffffffffffffffffffffffffffffffffffff167fddf252ad1be2c89b69c2b068fc378daa952ba7f163c4a11628f55a4df523b3ef836040518082815260200191505060405180910390a35050565b505050565b6000808284019050838110156200144c576040517f08c379a000000000000000000000000000000000000000000000000000000000815260040180806020018281038252601b8152602001807f536166654d6174683a206164646974696f6e206f766572666c6f77000000000081525060200191505060405180910390fd5b8091505092915050565b828054600181600116156101000203166002900490600052602060002090601f016020900481019282601f106200149957805160ff1916838001178555620014ca565b82800160010185558215620014ca579182015b82811115620014c9578251825591602001919060010190620014ac565b5b509050620014d99190620014dd565b5090565b6200150291905b80821115620014fe576000816000905550600101620014e4565b5090565b90565b614c5380620015156000396000f3fe60806040526004361061023f5760003560e01c80638dfa43631161012e578063c1cbbca7116100ab578063e4849b321161006f578063e4849b3214610e1d578063ee07bf2214610e63578063f242679714610e8e578063f2fde38b14610eb9578063ff09194214610f0a5761024f565b8063c1cbbca714610c8a578063cc65dd0f14610cd0578063d7bb99ba14610d1f578063dbe55e5614610d41578063dd62ed3e14610d985761024f565b8063a457c2d7116100f2578063a457c2d714610b2c578063a6f2ae3a14610b9f578063a77bfef814610bc1578063a9059cbb14610bec578063b09ad8a014610c5f5761024f565b80638dfa43631461097d57806395d89b41146109dd578063a10954fe14610a6d578063a293da0f14610a98578063a384d6ff14610b015761024f565b80634189a68e116101bc5780636b6e15ba116101805780636b6e15ba146107f557806370a0823114610844578063715018a6146108a95780637eee288d146108c05780638da5cb5b146109265761024f565b80634189a68e146105bf57806349f9b0f71461062557806354fd4d50146106985780635cc5fd841461072857806360b0b0f01461078f5761024f565b806323b872dd1161020357806323b872dd146103ea57806329a00e7c1461047d5780632b14ca56146104f0578063313ce5671461051b578063395093511461054c5761024f565b806306fdde031461025a578063095ea7b3146102ea5780630c7d5cd81461035d5780630cc2e3f81461039457806318160ddd146103bf5761024f565b3661024f5761024c610f35565b50005b610257610f35565b50005b34801561026657600080fd5b5061026f610f88565b6040518080602001828103825283818151815260200191508051906020019080838360005b838110156102af578082015181840152602081019050610294565b50505050905090810190601f1680156102dc5780820380516001836020036101000a031916815260200191505b509250505060405180910390f35b3480156102f657600080fd5b506103436004803603604081101561030d57600080fd5b81019080803573ffffffffffffffffffffffffffffffffffffffff1690602001909291908035906020019092919050505061102a565b604051808215151515815260200191505060405180910390f35b34801561036957600080fd5b50610372611048565b604051808263ffffffff1663ffffffff16815260200191505060405180910390f35b3480156103a057600080fd5b506103a961105e565b6040518082815260200191505060405180910390f35b3480156103cb57600080fd5b506103d4611064565b6040518082815260200191505060405180910390f35b3480156103f657600080fd5b506104636004803603606081101561040d57600080fd5b81019080803573ffffffffffffffffffffffffffffffffffffffff169060200190929190803573ffffffffffffffffffffffffffffffffffffffff1690602001909291908035906020019092919050505061106e565b604051808215151515815260200191505060405180910390f35b34801561048957600080fd5b506104da600480360360808110156104a057600080fd5b810190808035906020019092919080359060200190929190803563ffffffff16906020019092919080359060200190929190505050611147565b6040518082815260200191505060405180910390f35b3480156104fc57600080fd5b506105056112bc565b6040518082815260200191505060405180910390f35b34801561052757600080fd5b506105306112c2565b604051808260ff1660ff16815260200191505060405180910390f35b34801561055857600080fd5b506105a56004803603604081101561056f57600080fd5b81019080803573ffffffffffffffffffffffffffffffffffffffff169060200190929190803590602001909291905050506112d9565b604051808215151515815260200191505060405180910390f35b61060b600480360360408110156105d557600080fd5b8101908080359060200190929190803573ffffffffffffffffffffffffffffffffffffffff16906020019092919050505061138c565b604051808215151515815260200191505060405180910390f35b34801561063157600080fd5b506106826004803603608081101561064857600080fd5b810190808035906020019092919080359060200190929190803563ffffffff169060200190929190803590602001909291905050506114ab565b6040518082815260200191505060405180910390f35b3480156106a457600080fd5b506106ad611654565b6040518080602001828103825283818151815260200191508051906020019080838360005b838110156106ed5780820151818401526020810190506106d2565b50505050905090810190601f16801561071a5780820380516001836020036101000a031916815260200191505b509250505060405180910390f35b34801561073457600080fd5b506107756004803603606081101561074b57600080fd5b810190808035906020019092919080359060200190929190803590602001909291905050506116f2565b604051808215151515815260200191505060405180910390f35b6107db600480360360408110156107a557600080fd5b8101908080359060200190929190803573ffffffffffffffffffffffffffffffffffffffff1690602001909291905050506119d3565b604051808215151515815260200191505060405180910390f35b34801561080157600080fd5b5061082e6004803603602081101561081857600080fd5b8101908080359060200190929190505050611abd565b6040518082815260200191505060405180910390f35b34801561085057600080fd5b506108936004803603602081101561086757600080fd5b81019080803573ffffffffffffffffffffffffffffffffffffffff169060200190929190505050611af2565b6040518082815260200191505060405180910390f35b3480156108b557600080fd5b506108be611b3b565b005b61090c600480360360408110156108d657600080fd5b81019080803573ffffffffffffffffffffffffffffffffffffffff16906020019092919080359060200190929190505050611cc3565b604051808215151515815260200191505060405180910390f35b34801561093257600080fd5b5061093b611dcb565b604051808273ffffffffffffffffffffffffffffffffffffffff1673ffffffffffffffffffffffffffffffffffffffff16815260200191505060405180910390f35b34801561098957600080fd5b506109c0600480360360408110156109a057600080fd5b810190808035906020019092919080359060200190929190505050611df4565b604051808381526020018281526020019250505060405180910390f35b3480156109e957600080fd5b506109f2611e44565b6040518080602001828103825283818151815260200191508051906020019080838360005b83811015610a32578082015181840152602081019050610a17565b50505050905090810190601f168015610a5f5780820380516001836020036101000a031916815260200191505b509250505060405180910390f35b348015610a7957600080fd5b50610a82611ee6565b6040518082815260200191505060405180910390f35b348015610aa457600080fd5b50610ae760048036036020811015610abb57600080fd5b81019080803573ffffffffffffffffffffffffffffffffffffffff169060200190929190505050611ef0565b604051808215151515815260200191505060405180910390f35b348015610b0d57600080fd5b50610b16612079565b6040518082815260200191505060405180910390f35b348015610b3857600080fd5b50610b8560048036036040811015610b4f57600080fd5b81019080803573ffffffffffffffffffffffffffffffffffffffff1690602001909291908035906020019092919050505061207f565b604051808215151515815260200191505060405180910390f35b610ba761214c565b604051808215151515815260200191505060405180910390f35b348015610bcd57600080fd5b50610bd661228a565b6040518082815260200191505060405180910390f35b348015610bf857600080fd5b50610c4560048036036040811015610c0f57600080fd5b81019080803573ffffffffffffffffffffffffffffffffffffffff16906020019092919080359060200190929190505050612294565b604051808215151515815260200191505060405180910390f35b348015610c6b57600080fd5b50610c746122b2565b6040518082815260200191505060405180910390f35b610cb660048036036020811015610ca057600080fd5b81019080803590602001909291905050506122b8565b604051808215151515815260200191505060405180910390f35b348015610cdc57600080fd5b50610d0960048036036020811015610cf357600080fd5b81019080803590602001909291905050506123c3565b6040518082815260200191505060405180910390f35b610d27610f35565b604051808215151515815260200191505060405180910390f35b348015610d4d57600080fd5b50610d566123f8565b604051808273ffffffffffffffffffffffffffffffffffffffff1673ffffffffffffffffffffffffffffffffffffffff16815260200191505060405180910390f35b348015610da457600080fd5b50610e0760048036036040811015610dbb57600080fd5b81019080803573ffffffffffffffffffffffffffffffffffffffff169060200190929190803573ffffffffffffffffffffffffffffffffffffffff16906020019092919050505061241e565b6040518082815260200191505060405180910390f35b610e4960048036036020811015610e3357600080fd5b81019080803590602001909291905050506124a5565b604051808215151515815260200191505060405180910390f35b348015610e6f57600080fd5b50610e78612567565b6040518082815260200191505060405180910390f35b348015610e9a57600080fd5b50610ea3612576565b6040518082815260200191505060405180910390f35b348015610ec557600080fd5b50610f0860048036036020811015610edc57600080fd5b81019080803573ffffffffffffffffffffffffffffffffffffffff169060200190929190505050612580565b005b348015610f1657600080fd5b50610f1f61278d565b6040518082815260200191505060405180910390f35b6000806000610f4634608d54611df4565b91509150610f7682608f60009054906101000a900473ffffffffffffffffffffffffffffffffffffffff1661281f565b610f7f81612899565b60019250505090565b606060048054600181600116156101000203166002900480601f0160208091040260200160405190810160405280929190818152602001828054600181600116156101000203166002900480156110205780601f10610ff557610100808354040283529160200191611020565b820191906000526020600020905b81548152906001019060200180831161100357829003601f168201915b5050505050905090565b600061103e6110376129b8565b84846129c0565b6001905092915050565b608960009054906101000a900463ffffffff1681565b608d5481565b6000600354905090565b600061107b848484612bb7565b61113c846110876129b8565b61113785604051806060016040528060288152602001614a7c60289139600260008b73ffffffffffffffffffffffffffffffffffffffff1673ffffffffffffffffffffffffffffffffffffffff16815260200190815260200160002060006110ed6129b8565b73ffffffffffffffffffffffffffffffffffffffff1673ffffffffffffffffffffffffffffffffffffffff16815260200190815260200160002054612e7c9092919063ffffffff16565b6129c0565b600190509392505050565b600080851180156111585750600084115b801561116a575060008363ffffffff16115b80156111855750620f424063ffffffff168363ffffffff1611155b6111f7576040517f08c379a000000000000000000000000000000000000000000000000000000000815260040180806020018281038252600f8152602001807f496e76616c696420696e707574732e000000000000000000000000000000000081525060200191505060405180910390fd5b600082141561120957600090506112b4565b620f424063ffffffff168363ffffffff16141561124c57611245846112378488612f3c90919063ffffffff16565b612fc290919063ffffffff16565b90506112b4565b6000806000611264878661279790919063ffffffff16565b9050611275818888620f424061300c565b809350819450505060008260ff16611296858b612f3c90919063ffffffff16565b901c90506112ad89826131e090919063ffffffff16565b9450505050505b949350505050565b608e5481565b6000600660009054906101000a900460ff16905090565b60006113826112e66129b8565b8461137d85600260006112f76129b8565b73ffffffffffffffffffffffffffffffffffffffff1673ffffffffffffffffffffffffffffffffffffffff16815260200190815260200160002060008973ffffffffffffffffffffffffffffffffffffffff1673ffffffffffffffffffffffffffffffffffffffff1681526020019081526020016000205461279790919063ffffffff16565b6129c0565b6001905092915050565b6000808311611403576040517f08c379a00000000000000000000000000000000000000000000000000000000081526004018080602001828103825260188152602001807f416d6f756e74206d757374206265206e6f6e2d7a65726f2e000000000000000081525060200191505060405180910390fd5b8261140d33611af2565b1015611481576040517f08c379a000000000000000000000000000000000000000000000000000000000815260040180806020018281038252601c8152602001807f496e73756666696369656e7420746f6b656e7320746f206275726e2e0000000081525060200191505060405180910390fd5b60008061149085608e54611df4565b9150915061149f82828661322a565b60019250505092915050565b600080851180156114bc5750600084115b80156114ce575060008363ffffffff16115b80156114e95750620f424063ffffffff168363ffffffff1611155b80156114f55750848211155b611567576040517f08c379a000000000000000000000000000000000000000000000000000000000815260040180806020018281038252600f8152602001807f496e76616c696420696e707574732e000000000000000000000000000000000081525060200191505060405180910390fd5b6000821415611579576000905061164c565b848214156115895783905061164c565b620f424063ffffffff168363ffffffff1614156115cc576115c5856115b78487612f3c90919063ffffffff16565b612fc290919063ffffffff16565b905061164c565b60008060006115e485896131e090919063ffffffff16565b90506115f58882620f42408961300c565b809350819450505060006116128489612f3c90919063ffffffff16565b905060008360ff1689901b90506116448561163683856131e090919063ffffffff16565b612fc290919063ffffffff16565b955050505050505b949350505050565b60078054600181600116156101000203166002900480601f0160208091040260200160405190810160405280929190818152602001828054600181600116156101000203166002900480156116ea5780601f106116bf576101008083540402835291602001916116ea565b820191906000526020600020905b8154815290600101906020018083116116cd57829003601f168201915b505050505081565b60006116fc6129b8565b73ffffffffffffffffffffffffffffffffffffffff16608f60009054906101000a900473ffffffffffffffffffffffffffffffffffffffff1673ffffffffffffffffffffffffffffffffffffffff16146117a1576040517f08c379a0000000000000000000000000000000000000000000000000000000008152600401808060200182810382526027815260200180614aef6027913960400191505060405180910390fd5b600084116117fa576040517f08c379a0000000000000000000000000000000000000000000000000000000008152600401808060200182810382526027815260200180614a0f6027913960400191505060405180910390fd5b60648410611853576040517f08c379a000000000000000000000000000000000000000000000000000000000815260040180806020018281038252602a815260200180614b86602a913960400191505060405180910390fd5b600083116118ac576040517f08c379a0000000000000000000000000000000000000000000000000000000008152600401808060200182810382526027815260200180614b5f6027913960400191505060405180910390fd5b60648310611905576040517f08c379a000000000000000000000000000000000000000000000000000000000815260040180806020018281038252602a815260200180614aa4602a913960400191505060405180910390fd5b6000821161195e576040517f08c379a0000000000000000000000000000000000000000000000000000000008152600401808060200182810382526023815260200180614bb06023913960400191505060405180910390fd5b606482106119b7576040517f08c379a00000000000000000000000000000000000000000000000000000000081526004018080602001828103825260268152602001806149c36026913960400191505060405180910390fd5b83608b8190555082608c8190555081608d819055509392505050565b600082608b54811015611a31576040517f08c379a0000000000000000000000000000000000000000000000000000000008152600401808060200182810382526026815260200180614bf86026913960400191505060405180910390fd5b608c54811115611a8c576040517f08c379a0000000000000000000000000000000000000000000000000000000008152600401808060200182810382526025815260200180614a366025913960400191505060405180910390fd5b600080611a993487611df4565b91509150611aa7828661281f565b611ab081612899565b6001935050505092915050565b6000611aeb611aca612567565b611ad2611ee6565b608960009054906101000a900463ffffffff1685611147565b9050919050565b6000600160008373ffffffffffffffffffffffffffffffffffffffff1673ffffffffffffffffffffffffffffffffffffffff168152602001908152602001600020549050919050565b611b436129b8565b73ffffffffffffffffffffffffffffffffffffffff166000809054906101000a900473ffffffffffffffffffffffffffffffffffffffff1673ffffffffffffffffffffffffffffffffffffffff1614611c04576040517f08c379a00000000000000000000000000000000000000000000000000000000081526004018080602001828103825260208152602001807f4f776e61626c653a2063616c6c6572206973206e6f7420746865206f776e657281525060200191505060405180910390fd5b600073ffffffffffffffffffffffffffffffffffffffff166000809054906101000a900473ffffffffffffffffffffffffffffffffffffffff1673ffffffffffffffffffffffffffffffffffffffff167f8be0079c531659141344cd1fd0a4f28419497f9722a3daafe3b4186f6b6457e060405160405180910390a360008060006101000a81548173ffffffffffffffffffffffffffffffffffffffff021916908373ffffffffffffffffffffffffffffffffffffffff160217905550565b6000611ccd6129b8565b73ffffffffffffffffffffffffffffffffffffffff16608f60009054906101000a900473ffffffffffffffffffffffffffffffffffffffff1673ffffffffffffffffffffffffffffffffffffffff1614611d72576040517f08c379a0000000000000000000000000000000000000000000000000000000008152600401808060200182810382526027815260200180614aef6027913960400191505060405180910390fd5b611dc482608a60008673ffffffffffffffffffffffffffffffffffffffff1673ffffffffffffffffffffffffffffffffffffffff1681526020019081526020016000205461279790919063ffffffff16565b5092915050565b60008060009054906101000a900473ffffffffffffffffffffffffffffffffffffffff16905090565b600080611e0a8385612f3c90919063ffffffff16565b9150611e20606483612fc290919063ffffffff16565b9150611e3582856131e090919063ffffffff16565b90508181915091509250929050565b606060058054600181600116156101000203166002900480601f016020809104026020016040519081016040528092919081815260200182805460018160011615610100020316600290048015611edc5780601f10611eb157610100808354040283529160200191611edc565b820191906000526020600020905b815481529060010190602001808311611ebf57829003601f168201915b5050505050905090565b6000608854905090565b6000611efa6129b8565b73ffffffffffffffffffffffffffffffffffffffff166000809054906101000a900473ffffffffffffffffffffffffffffffffffffffff1673ffffffffffffffffffffffffffffffffffffffff1614611fbb576040517f08c379a00000000000000000000000000000000000000000000000000000000081526004018080602001828103825260208152602001807f4f776e61626c653a2063616c6c6572206973206e6f7420746865206f776e657281525060200191505060405180910390fd5b611fda8273ffffffffffffffffffffffffffffffffffffffff1661333c565b61202f576040517f08c379a000000000000000000000000000000000000000000000000000000000815260040180806020018281038252602381526020018061492e6023913960400191505060405180910390fd5b81608f60006101000a81548173ffffffffffffffffffffffffffffffffffffffff021916908373ffffffffffffffffffffffffffffffffffffffff16021790555060019050919050565b608b5481565b600061214261208c6129b8565b8461213d85604051806060016040528060258152602001614bd360259139600260006120b66129b8565b73ffffffffffffffffffffffffffffffffffffffff1673ffffffffffffffffffffffffffffffffffffffff16815260200190815260200160002060008a73ffffffffffffffffffffffffffffffffffffffff1673ffffffffffffffffffffffffffffffffffffffff16815260200190815260200160002054612e7c9092919063ffffffff16565b6129c0565b6001905092915050565b600034608a60003373ffffffffffffffffffffffffffffffffffffffff1673ffffffffffffffffffffffffffffffffffffffff16815260200190815260200160002054116121e5576040517f08c379a000000000000000000000000000000000000000000000000000000000815260040180806020018281038252602a815260200180614999602a913960400191505060405180910390fd5b6121ee34612899565b61224034608a60003373ffffffffffffffffffffffffffffffffffffffff1673ffffffffffffffffffffffffffffffffffffffff168152602001908152602001600020546131e090919063ffffffff16565b608a60003373ffffffffffffffffffffffffffffffffffffffff1673ffffffffffffffffffffffffffffffffffffffff168152602001908152602001600020819055506001905090565b6000608b54905090565b60006122a86122a16129b8565b8484612bb7565b6001905092915050565b608c5481565b600081608b54811015612316576040517f08c379a0000000000000000000000000000000000000000000000000000000008152600401808060200182810382526026815260200180614bf86026913960400191505060405180910390fd5b608c54811115612371576040517f08c379a0000000000000000000000000000000000000000000000000000000008152600401808060200182810382526025815260200180614a366025913960400191505060405180910390fd5b60008061237e3486611df4565b915091506123ae82608f60009054906101000a900473ffffffffffffffffffffffffffffffffffffffff1661281f565b6123b781612899565b60019350505050919050565b60006123f16123d0612567565b6123d8611ee6565b608960009054906101000a900463ffffffff16856114ab565b9050919050565b608f60009054906101000a900473ffffffffffffffffffffffffffffffffffffffff1681565b6000600260008473ffffffffffffffffffffffffffffffffffffffff1673ffffffffffffffffffffffffffffffffffffffff16815260200190815260200160002060008373ffffffffffffffffffffffffffffffffffffffff1673ffffffffffffffffffffffffffffffffffffffff16815260200190815260200160002054905092915050565b600080821161251c576040517f08c379a00000000000000000000000000000000000000000000000000000000081526004018080602001828103825260188152602001807f416d6f756e74206d757374206265206e6f6e2d7a65726f2e000000000000000081525060200191505060405180910390fd5b60008061252b84608e54611df4565b9150915061255c8282608f60009054906101000a900473ffffffffffffffffffffffffffffffffffffffff1661322a565b600192505050919050565b6000612571611064565b905090565b6000608c54905090565b6125886129b8565b73ffffffffffffffffffffffffffffffffffffffff166000809054906101000a900473ffffffffffffffffffffffffffffffffffffffff1673ffffffffffffffffffffffffffffffffffffffff1614612649576040517f08c379a00000000000000000000000000000000000000000000000000000000081526004018080602001828103825260208152602001807f4f776e61626c653a2063616c6c6572206973206e6f7420746865206f776e657281525060200191505060405180910390fd5b600073ffffffffffffffffffffffffffffffffffffffff168173ffffffffffffffffffffffffffffffffffffffff1614156126cf576040517f08c379a00000000000000000000000000000000000000000000000000000000081526004018080602001828103825260268152602001806149516026913960400191505060405180910390fd5b8073ffffffffffffffffffffffffffffffffffffffff166000809054906101000a900473ffffffffffffffffffffffffffffffffffffffff1673ffffffffffffffffffffffffffffffffffffffff167f8be0079c531659141344cd1fd0a4f28419497f9722a3daafe3b4186f6b6457e060405160405180910390a3806000806101000a81548173ffffffffffffffffffffffffffffffffffffffff021916908373ffffffffffffffffffffffffffffffffffffffff16021790555050565b6000608d54905090565b600080828401905083811015612815576040517f08c379a000000000000000000000000000000000000000000000000000000000815260040180806020018281038252601b8152602001807f536166654d6174683a206164646974696f6e206f766572666c6f77000000000081525060200191505060405180910390fd5b8091505092915050565b60008211612895576040517f08c379a00000000000000000000000000000000000000000000000000000000081526004018080602001828103825260198152602001807f4465706f736974206d757374206265206e6f6e2d7a65726f2e0000000000000081525060200191505060405180910390fd5b5050565b6000811161290f576040517f08c379a00000000000000000000000000000000000000000000000000000000081526004018080602001828103825260198152602001807f4465706f736974206d757374206265206e6f6e2d7a65726f2e0000000000000081525060200191505060405180910390fd5b600061291a82611abd565b90506129263382613387565b7f25b428dfde728ccfaddad7e29e4ac23c24ed7fd1a6e3e3f91894a9a073f5dfff338284604051808473ffffffffffffffffffffffffffffffffffffffff1673ffffffffffffffffffffffffffffffffffffffff168152602001838152602001828152602001935050505060405180910390a16129ae8260885461279790919063ffffffff16565b6088819055505050565b600033905090565b600073ffffffffffffffffffffffffffffffffffffffff168373ffffffffffffffffffffffffffffffffffffffff161415612a46576040517f08c379a0000000000000000000000000000000000000000000000000000000008152600401808060200182810382526024815260200180614b3b6024913960400191505060405180910390fd5b600073ffffffffffffffffffffffffffffffffffffffff168273ffffffffffffffffffffffffffffffffffffffff161415612acc576040517f08c379a00000000000000000000000000000000000000000000000000000000081526004018080602001828103825260228152602001806149776022913960400191505060405180910390fd5b80600260008573ffffffffffffffffffffffffffffffffffffffff1673ffffffffffffffffffffffffffffffffffffffff16815260200190815260200160002060008473ffffffffffffffffffffffffffffffffffffffff1673ffffffffffffffffffffffffffffffffffffffff168152602001908152602001600020819055508173ffffffffffffffffffffffffffffffffffffffff168373ffffffffffffffffffffffffffffffffffffffff167f8c5be1e5ebec7d5bd14f71427d1e84f3dd0314c0f7b2291e5b200ac8c7c3b925836040518082815260200191505060405180910390a3505050565b600073ffffffffffffffffffffffffffffffffffffffff168373ffffffffffffffffffffffffffffffffffffffff161415612c3d576040517f08c379a0000000000000000000000000000000000000000000000000000000008152600401808060200182810382526025815260200180614b166025913960400191505060405180910390fd5b600073ffffffffffffffffffffffffffffffffffffffff168273ffffffffffffffffffffffffffffffffffffffff161415612cc3576040517f08c379a00000000000000000000000000000000000000000000000000000000081526004018080602001828103825260238152602001806148e96023913960400191505060405180910390fd5b612cce838383613550565b612d3a816040518060600160405280602681526020016149e960269139600160008773ffffffffffffffffffffffffffffffffffffffff1673ffffffffffffffffffffffffffffffffffffffff16815260200190815260200160002054612e7c9092919063ffffffff16565b600160008573ffffffffffffffffffffffffffffffffffffffff1673ffffffffffffffffffffffffffffffffffffffff16815260200190815260200160002081905550612dcf81600160008573ffffffffffffffffffffffffffffffffffffffff1673ffffffffffffffffffffffffffffffffffffffff1681526020019081526020016000205461279790919063ffffffff16565b600160008473ffffffffffffffffffffffffffffffffffffffff1673ffffffffffffffffffffffffffffffffffffffff168152602001908152602001600020819055508173ffffffffffffffffffffffffffffffffffffffff168373ffffffffffffffffffffffffffffffffffffffff167fddf252ad1be2c89b69c2b068fc378daa952ba7f163c4a11628f55a4df523b3ef836040518082815260200191505060405180910390a3505050565b6000838311158290612f29576040517f08c379a00000000000000000000000000000000000000000000000000000000081526004018080602001828103825283818151815260200191508051906020019080838360005b83811015612eee578082015181840152602081019050612ed3565b50505050905090810190601f168015612f1b5780820380516001836020036101000a031916815260200191505b509250505060405180910390fd5b5060008385039050809150509392505050565b600080831415612f4f5760009050612fbc565b6000828402905082848281612f6057fe5b0414612fb7576040517f08c379a0000000000000000000000000000000000000000000000000000000008152600401808060200182810382526021815260200180614a5b6021913960400191505060405180910390fd5b809150505b92915050565b600061300483836040518060400160405280601a81526020017f536166654d6174683a206469766973696f6e206279207a65726f000000000000815250613555565b905092915050565b6000807002000000000000000000000000000000008610613095576040517f08c379a00000000000000000000000000000000000000000000000000000000081526004018080602001828103825260188152602001807f626173654e2065786365656473206d61782076616c75652e000000000000000081525060200191505060405180910390fd5b8486101561310b576040517f08c379a000000000000000000000000000000000000000000000000000000000815260040180806020018281038252601c8152602001807f4261736573203c203120617265206e6f7420737570706f727465642e0000000081525060200191505060405180910390fd5b600080866f8000000000000000000000000000000089028161312957fe5b04905070015bf0a8b1457695355fb8ac404e7a79e38110156131555761314e8161361b565b9150613161565b61315e81613bab565b91505b60008563ffffffff168763ffffffff1684028161317a57fe5b0490507008000000000000000000000000000000008110156131ad5761319f81613cd3565b607f945094505050506131d7565b60006131b88261424d565b90506131cd81607f0360ff1683901c82614302565b8195509550505050505b94509492505050565b600061322283836040518060400160405280601e81526020017f536166654d6174683a207375627472616374696f6e206f766572666c6f770000815250612e7c565b905092915050565b6000613235846123c3565b90506000613242846123c3565b9050613250338587016146a0565b7f23ff0e75edf108e3d0392d92e13e8c8a868ef19001bd49f9e94876dc46dff87f33858701838501604051808473ffffffffffffffffffffffffffffffffffffffff1673ffffffffffffffffffffffffffffffffffffffff168152602001838152602001828152602001935050505060405180910390a16132de8183016088546131e090919063ffffffff16565b6088819055506132ee828461281f565b3373ffffffffffffffffffffffffffffffffffffffff166108fc829081150290604051600060405180830381858888f19350505050158015613334573d6000803e3d6000fd5b505050505050565b60008060007fc5d2460186f7233c927e7db2dcc703c0e500b653ca82273b7bfad8045d85a47060001b9050833f915080821415801561337e57506000801b8214155b92505050919050565b600073ffffffffffffffffffffffffffffffffffffffff168273ffffffffffffffffffffffffffffffffffffffff16141561342a576040517f08c379a000000000000000000000000000000000000000000000000000000000815260040180806020018281038252601f8152602001807f45524332303a206d696e7420746f20746865207a65726f20616464726573730081525060200191505060405180910390fd5b61343660008383613550565b61344b8160035461279790919063ffffffff16565b6003819055506134a381600160008573ffffffffffffffffffffffffffffffffffffffff1673ffffffffffffffffffffffffffffffffffffffff1681526020019081526020016000205461279790919063ffffffff16565b600160008473ffffffffffffffffffffffffffffffffffffffff1673ffffffffffffffffffffffffffffffffffffffff168152602001908152602001600020819055508173ffffffffffffffffffffffffffffffffffffffff16600073ffffffffffffffffffffffffffffffffffffffff167fddf252ad1be2c89b69c2b068fc378daa952ba7f163c4a11628f55a4df523b3ef836040518082815260200191505060405180910390a35050565b505050565b60008083118290613601576040517f08c379a00000000000000000000000000000000000000000000000000000000081526004018080602001828103825283818151815260200191508051906020019080838360005b838110156135c65780820151818401526020810190506135ab565b50505050905090810190601f1680156135f35780820380516001836020036101000a031916815260200191505b509250505060405180910390fd5b50600083858161360d57fe5b049050809150509392505050565b6000806000905060008060006fd3094c70f034de4b96ff7d5b6f99fcd88610613682576f40000000000000000000000000000000840193506fd3094c70f034de4b96ff7d5b6f99fcd86f8000000000000000000000000000000087028161367e57fe5b0495505b6fa45af1e1f40c333b3de1db4dd55f29a786106136dd576f20000000000000000000000000000000840193506fa45af1e1f40c333b3de1db4dd55f29a76f800000000000000000000000000000008702816136d957fe5b0495505b6f910b022db7ae67ce76b441c27035c6a18610613738576f10000000000000000000000000000000840193506f910b022db7ae67ce76b441c27035c6a16f8000000000000000000000000000000087028161373457fe5b0495505b6f88415abbe9a76bead8d00cf112e4d4a88610613793576f08000000000000000000000000000000840193506f88415abbe9a76bead8d00cf112e4d4a86f8000000000000000000000000000000087028161378f57fe5b0495505b6f84102b00893f64c705e841d5d4064bd386106137ee576f04000000000000000000000000000000840193506f84102b00893f64c705e841d5d4064bd36f800000000000000000000000000000008702816137ea57fe5b0495505b6f8204055aaef1c8bd5c3259f4822735a28610613849576f02000000000000000000000000000000840193506f8204055aaef1c8bd5c3259f4822735a26f8000000000000000000000000000000087028161384557fe5b0495505b6f810100ab00222d861931c15e39b44e9986106138a4576f01000000000000000000000000000000840193506f810100ab00222d861931c15e39b44e996f800000000000000000000000000000008702816138a057fe5b0495505b6f808040155aabbbe9451521693554f73386106138fe576e800000000000000000000000000000840193506f808040155aabbbe9451521693554f7336f800000000000000000000000000000008702816138fa57fe5b0495505b6f80000000000000000000000000000000860392508291506f800000000000000000000000000000008384028161393157fe5b049050700100000000000000000000000000000000837001000000000000000000000000000000000383028161396357fe5b04840193506f800000000000000000000000000000008183028161398357fe5b049150700200000000000000000000000000000000836faaaaaaaaaaaaaaaaaaaaaaaaaaaaaaaa038302816139b457fe5b04840193506f80000000000000000000000000000000818302816139d457fe5b049150700300000000000000000000000000000000836f9999999999999999999999999999999903830281613a0557fe5b04840193506f8000000000000000000000000000000081830281613a2557fe5b049150700400000000000000000000000000000000836f9249249249249249249249249249249203830281613a5657fe5b04840193506f8000000000000000000000000000000081830281613a7657fe5b049150700500000000000000000000000000000000836f8e38e38e38e38e38e38e38e38e38e38e03830281613aa757fe5b04840193506f8000000000000000000000000000000081830281613ac757fe5b049150700600000000000000000000000000000000836f8ba2e8ba2e8ba2e8ba2e8ba2e8ba2e8b03830281613af857fe5b04840193506f8000000000000000000000000000000081830281613b1857fe5b049150700700000000000000000000000000000000836f89d89d89d89d89d89d89d89d89d89d8903830281613b4957fe5b04840193506f8000000000000000000000000000000081830281613b6957fe5b049150700800000000000000000000000000000000836f8888888888888888888888888888888803830281613b9a57fe5b048401935083945050505050919050565b6000806000905060008390507001000000000000000000000000000000008110613c18576000613bf36f800000000000000000000000000000008381613bed57fe5b04614866565b90508060ff1682901c91506f800000000000000000000000000000008160ff16029250505b6f80000000000000000000000000000000811115613c9e576000607f90505b60008160ff161115613c9c576f8000000000000000000000000000000082830281613c5e57fe5b0491507001000000000000000000000000000000008210613c9057600182901c91506001810360ff166001901b830192505b80600190039050613c37565b505b6f05b9de1d10bf4103d647b0955897ba806f03f80fe03f80fe03f80fe03f80fe03f8830281613cc957fe5b0492505050919050565b600080600090506000806f100000000000000000000000000000008581613cf657fe5b0691508190506f8000000000000000000000000000000082820281613d1757fe5b0490506710e1b3be415a00008102830192506f8000000000000000000000000000000082820281613d4457fe5b0490506705a0913f6b1e00008102830192506f8000000000000000000000000000000082820281613d7157fe5b049050670168244fdac780008102830192506f8000000000000000000000000000000082820281613d9e57fe5b049050664807432bc180008102830192506f8000000000000000000000000000000082820281613dca57fe5b049050660c0135dca040008102830192506f8000000000000000000000000000000082820281613df657fe5b0490506601b707b1cdc0008102830192506f8000000000000000000000000000000082820281613e2257fe5b0490506536e0f639b8008102830192506f8000000000000000000000000000000082820281613e4d57fe5b049050650618fee9f8008102830192506f8000000000000000000000000000000082820281613e7857fe5b049050649c197dcc008102830192506f8000000000000000000000000000000082820281613ea257fe5b049050640e30dce4008102830192506f8000000000000000000000000000000082820281613ecc57fe5b04905064012ebd13008102830192506f8000000000000000000000000000000082820281613ef657fe5b0490506317499f008102830192506f8000000000000000000000000000000082820281613f1f57fe5b0490506301a9d4808102830192506f8000000000000000000000000000000082820281613f4857fe5b049050621c63808102830192506f8000000000000000000000000000000082820281613f7057fe5b0490506201c6388102830192506f8000000000000000000000000000000082820281613f9857fe5b049050611ab88102830192506f8000000000000000000000000000000082820281613fbf57fe5b04905061017c8102830192506f8000000000000000000000000000000082820281613fe657fe5b04905060148102830192506f800000000000000000000000000000008282028161400c57fe5b04905060018102830192506f80000000000000000000000000000000826721c3677c82b40000858161403a57fe5b040101925060006f1000000000000000000000000000000086161461408a5770018ebef9eac820ae8682b9793ac6d1e7767001c3d6a24ed82218787d624d3e5eba95f984028161408657fe5b0492505b60006f200000000000000000000000000000008616146140d5577001368b2fc6f9609fe7aceb46aa619baed470018ebef9eac820ae8682b9793ac6d1e7788402816140d157fe5b0492505b60006f4000000000000000000000000000000086161461411f576fbc5ab1b16779be3575bd8f0520a9f21f7001368b2fc6f9609fe7aceb46aa619baed584028161411b57fe5b0492505b60006f80000000000000000000000000000000861614614168576f454aaa8efe072e7f6ddbab84b40a55c96fbc5ab1b16779be3575bd8f0520a9f21e84028161416457fe5b0492505b60007001000000000000000000000000000000008616146141b2576f0960aadc109e7a3bf4578099615711ea6f454aaa8efe072e7f6ddbab84b40a55c58402816141ae57fe5b0492505b60007002000000000000000000000000000000008616146141fb576e2bf84208204f5977f9a8cf01fdce3d6f0960aadc109e7a3bf4578099615711d78402816141f757fe5b0492505b6000700400000000000000000000000000000000861614614242576d03c6ab775dd0b95b4cbee7e65d116e2bf84208204f5977f9a8cf01fdc30784028161423e57fe5b0492505b829350505050919050565b600080602090506000607f90505b8060ff166001830160ff1610156142aa576000600282840160ff168161427d57fe5b0490508460088260ff166080811061429157fe5b0154106142a0578092506142a4565b8091505b5061425b565b8360088260ff16608081106142bb57fe5b0154106142cc5780925050506142fd565b8360088360ff16608081106142dd57fe5b0154106142ee5781925050506142fd565b60006142f657fe5b6000925050505b919050565b60008083905060008090508360ff16858302901c91506f03442c4e6074a82f1797f72ac00000008202810190508360ff16858302901c91506f0116b96f757c380fb287fd0e400000008202810190508360ff16858302901c91506e45ae5bdd5f0e03eca1ff43900000008202810190508360ff16858302901c91506e0defabf91302cd95b9ffda500000008202810190508360ff16858302901c91506e02529ca9832b22439efff9b80000008202810190508360ff16858302901c91506d54f1cf12bd04e516b6da880000008202810190508360ff16858302901c91506d0a9e39e257a09ca2d6db510000008202810190508360ff16858302901c91506d012e066e7b839fa050c3090000008202810190508360ff16858302901c91506c1e33d7d926c329a1ad1a8000008202810190508360ff16858302901c91506c02bee513bdb4a6b19b5f8000008202810190508360ff16858302901c91506b3a9316fa79b88eccf2a000008202810190508360ff16858302901c91506b048177ebe1fa8123752000008202810190508360ff16858302901c91506a5263fe90242dcbacf000008202810190508360ff16858302901c91506a057e22099c030d941000008202810190508360ff16858302901c91506957e22099c030d94100008202810190508360ff16858302901c915069052b6b545699763100008202810190508360ff16858302901c9150684985f67696bf7480008202810190508360ff16858302901c91506803dea12ea99e4980008202810190508360ff16858302901c91506731880f2214b6e0008202810190508360ff16858302901c915067025bcff56eb360008202810190508360ff16858302901c9150661b722e10ab10008202810190508360ff16858302901c91506601317c700770008202810190508360ff16858302901c9150650cba84aafa008202810190508360ff16858302901c91506482573a0a008202810190508360ff16858302901c91506405035ad9008202810190508360ff16858302901c9150632f881b008202810190508360ff16858302901c91506301b293408202810190508360ff16858302901c9150620efc408202810190508360ff16858302901c9150617fe08202810190508360ff16858302901c91506104208202810190508360ff16858302901c915060218202810190508360ff16858302901c915060018202810190508360ff166001901b856f0688589cc0e9505e2f2fee5580000000838161469357fe5b0401019250505092915050565b600073ffffffffffffffffffffffffffffffffffffffff168273ffffffffffffffffffffffffffffffffffffffff161415614726576040517f08c379a0000000000000000000000000000000000000000000000000000000008152600401808060200182810382526021815260200180614ace6021913960400191505060405180910390fd5b61473282600083613550565b61479e8160405180606001604052806022815260200161490c60229139600160008673ffffffffffffffffffffffffffffffffffffffff1673ffffffffffffffffffffffffffffffffffffffff16815260200190815260200160002054612e7c9092919063ffffffff16565b600160008473ffffffffffffffffffffffffffffffffffffffff1673ffffffffffffffffffffffffffffffffffffffff168152602001908152602001600020819055506147f6816003546131e090919063ffffffff16565b600381905550600073ffffffffffffffffffffffffffffffffffffffff168273ffffffffffffffffffffffffffffffffffffffff167fddf252ad1be2c89b69c2b068fc378daa952ba7f163c4a11628f55a4df523b3ef836040518082815260200191505060405180910390a35050565b60008060009050600083905061010081101561489d575b600181111561489857600181901c905060018201915061487d565b6148de565b6000608090505b60008160ff1611156148dc578060ff166001901b82106148cd578060ff1682901c915080831792505b60018160ff16901c90506148a4565b505b819250505091905056fe45524332303a207472616e7366657220746f20746865207a65726f206164647265737345524332303a206275726e20616d6f756e7420657863656564732062616c616e636541646472657373206d757374206265206120436f6e74726163742061646472657373204f776e61626c653a206e6577206f776e657220697320746865207a65726f206164647265737345524332303a20617070726f766520746f20746865207a65726f2061646472657373596f7520617265206e6f7420616c6c6f77656420746f2062757920736f206d75636820746f6b656e732e44656661756c742050657263656e746167652068617320746f2062652062656c6f772031303045524332303a207472616e7366657220616d6f756e7420657863656564732062616c616e63654c6f77657220426f756e642050657263656e746167652068617320746f206265206f766572203043686f73656e2050657263656e74616765206973206f766572207570706572426f756e642e536166654d6174683a206d756c7469706c69636174696f6e206f766572666c6f7745524332303a207472616e7366657220616d6f756e74206578636565647320616c6c6f77616e6365557070657220426f756e642050657263656e746167652068617320746f2062652062656c6f772031303045524332303a206275726e2066726f6d20746865207a65726f206164647265737343616c6c6572206973206e6f7420746865207265676973746572656420506c617474666f726d2e45524332303a207472616e736665722066726f6d20746865207a65726f206164647265737345524332303a20617070726f76652066726f6d20746865207a65726f2061646472657373557070657220426f756e642050657263656e746167652068617320746f206265206f76657220304c6f77657220426f756e642050657263656e746167652068617320746f2062652062656c6f772031303044656661756c742050657263656e746167652068617320746f206265206f766572203045524332303a2064656372656173656420616c6c6f77616e63652062656c6f77207a65726f43686f73656e2050657263656e746167652069732062656c6f77206c6f776572426f756e642ea264697066735822122095de86faaad235bf7b85b70590160dc1b599d0503cb6d7ac28bacb595c2ae34364736f6c63430006080033",
  "source": "pragma solidity 0.6.8;\r\n\r\nimport \"./oz/Ownable.sol\";\r\nimport \"./oz/SafeMath.sol\";\r\nimport \"./oz/ERC20.sol\";\r\n\r\nimport \"./bancor/BancorFormula.sol\";\r\n\r\ncontract AcrenToken is Ownable, ERC20,  BancorFormula {\r\n    using SafeMath for uint;\r\n    using Address for address;\r\n\r\n    uint256 internal reserve;\r\n    uint32 public reserveRatio;\r\n    mapping (address => uint256) private unlocked;\r\n    uint public lowerBound;\r\n    uint public upperBound;\r\n    uint public defaultFundingRatio;\r\n    uint public sellFee;\r\n    address public platformAddress;\r\n\r\n    event Minted(address sender, uint amount, uint deposit);\r\n    event Burned(address sender, uint amount, uint refund);\r\n\r\n    modifier isPlatform() {\r\n        require(platformAddress == _msgSender(), \"Caller is not the registered Plattform.\");\r\n        _;\r\n    }\r\n\r\n    modifier isInRange(uint _percentageFunding) {\r\n        require(_percentageFunding >= lowerBound, \"Chosen Percentage is below lowerBound.\");\r\n        require(_percentageFunding <= upperBound, \"Chosen Percentage is over upperBound.\");\r\n        _;\r\n    }\r\n\r\n    constructor(\r\n        string memory _name,\r\n        string memory _symbol,\r\n        uint _initialSupply,\r\n        uint32 _reserveRatio,\r\n        address _platformAddress,\r\n        uint _sellFee\r\n    ) public payable ERC20(_name, _symbol) {\r\n        reserveRatio = _reserveRatio;\r\n        sellFee = _sellFee;\r\n        platformAddress = _platformAddress;\r\n        _mint(msg.sender, _initialSupply);\r\n        reserve = msg.value;\r\n    }\r\n\r\n    function Supply() public view returns (uint) {\r\n        return totalSupply();\r\n    }\r\n\r\n    function lowerBoundFundingRatio() public view returns (uint) {\r\n        return lowerBound;\r\n    }\r\n\r\n    function upperBoundFundingRatio() public view returns (uint) {\r\n        return upperBound;\r\n    }\r\n\r\n    function FundingRatio() public view returns (uint) {\r\n        return defaultFundingRatio;\r\n    }\r\n\r\n    function reserveBalance() public view returns (uint) {\r\n        return reserve;\r\n    }\r\n\r\n    function getMintReward(uint _depositTokenAmount) public view returns (uint) {\r\n        return calculatePurchaseReturn(Supply(), reserveBalance(), reserveRatio, _depositTokenAmount);\r\n    }\r\n\r\n    function getBurnRefund(uint _bondingTokenAmount) public view returns (uint) {\r\n        return calculateSaleReturn(Supply(), reserveBalance(), reserveRatio, _bondingTokenAmount);\r\n    }\r\n\r\n    function updatePlatform(address _platformAddress) onlyOwner() public returns (bool) {\r\n        require(_platformAddress.isContract(), \"Address must be a Contract address \");\r\n        platformAddress = _platformAddress;\r\n        return true;\r\n    }\r\n\r\n    function updateRatioConfiguration(uint _lowerBound, uint _upperBound, uint _defaultFundingRatio) isPlatform() public returns (bool) {\r\n        require(_lowerBound > 0, \"Lower Bound Percentage has to be over 0\");\r\n        require(_lowerBound < 100, \"Lower Bound Percentage has to be below 100\");\r\n        require(_upperBound > 0, \"Upper Bound Percentage has to be over 0\");\r\n        require(_upperBound < 100, \"Upper Bound Percentage has to be below 100\");\r\n        require(_defaultFundingRatio > 0, \"Default Percentage has to be over 0\");\r\n        require(_defaultFundingRatio < 100, \"Default Percentage has to be below 100\");\r\n        lowerBound = _lowerBound;\r\n        upperBound = _upperBound;\r\n        defaultFundingRatio = _defaultFundingRatio;\r\n    }\r\n\r\n    fallback () external payable { contribute(); }\r\n\r\n    receive () external payable { contribute(); }\r\n\r\n    function contribute() public payable returns (bool) {\r\n        (uint fundingAmount, uint tokenAmount) = calculate (msg.value, defaultFundingRatio);\r\n        _sendToPlatform(fundingAmount, platformAddress);\r\n        _mint(tokenAmount);\r\n        return true;\r\n    }\r\n\r\n    function contribute(uint _percentageFunding) isInRange(_percentageFunding) public payable returns (bool) {\r\n        (uint fundingAmount, uint tokenAmount) = calculate (msg.value, _percentageFunding);\r\n        _sendToPlatform(fundingAmount, platformAddress);\r\n        _mint(tokenAmount);\r\n        return true;\r\n    }\r\n\r\n    function contribute(uint _percentageFunding, address _campaign) isInRange(_percentageFunding) public payable returns (bool) {\r\n        (uint fundingAmount, uint tokenAmount) = calculate (msg.value, _percentageFunding);\r\n        _sendToPlatform(fundingAmount, _campaign);\r\n        _mint(tokenAmount);\r\n        return true;\r\n    }\r\n\r\n    function calculate(uint _amount, uint _percentage) public pure returns (uint calculatedFundingAmount, uint calculatedTokenAmount) {\r\n        calculatedFundingAmount = _amount.mul(_percentage);\r\n        calculatedFundingAmount = calculatedFundingAmount.div(100);\r\n        calculatedTokenAmount = _amount.sub(calculatedFundingAmount);\r\n        return (calculatedFundingAmount, calculatedTokenAmount);\r\n    }\r\n    \r\n    function unlock(address _user, uint256 _amount) isPlatform() public payable returns (bool) {\r\n        unlocked[_user].add(_amount);\r\n    }\r\n\r\n    function buy() public payable returns (bool) {\r\n        //TODO: accept value of the unlocked tokens and send rest back \r\n       require(unlocked[msg.sender] > msg.value, \"You are not allowed to buy so much tokens.\");\r\n        _mint(msg.value);\r\n        unlocked[msg.sender] = unlocked[msg.sender].sub(msg.value);\r\n        return true;\r\n    }\r\n\r\n    function sell(uint _amount) public payable returns (bool) {\r\n        require(_amount > 0, \"Amount must be non-zero.\");\r\n        (uint fundingAmount, uint tokenAmount) = calculate(_amount, sellFee);\r\n        _burn(fundingAmount, tokenAmount, platformAddress);\r\n        return true;\r\n    }\r\n\r\n    function sell(uint _amount, address _campaign) public payable returns (bool) {\r\n        require(_amount > 0, \"Amount must be non-zero.\");\r\n        require(balanceOf(msg.sender) >= _amount, \"Insufficient tokens to burn.\");\r\n        (uint fundingAmount, uint tokenAmount) = calculate(_amount, sellFee);\r\n        _burn(fundingAmount, tokenAmount, _campaign);\r\n        return true;\r\n    }\r\n\r\n\r\n    function _mint(uint _purchaseAmount) internal {\r\n        require(_purchaseAmount > 0, \"Deposit must be non-zero.\");\r\n        uint rewardAmount = getMintReward(_purchaseAmount);\r\n        _mint(msg.sender, rewardAmount);\r\n        emit Minted(msg.sender, rewardAmount, _purchaseAmount);\r\n        reserve = reserve.add(_purchaseAmount);\r\n    }\r\n\r\n    function _burn(uint _fundingAmount, uint _tokenAmount, address _fundingAddress) internal {\r\n        uint refundFundingAmount = getBurnRefund(_fundingAmount);\r\n        uint refundTokenAmount = getBurnRefund(_tokenAmount);\r\n        _burn(msg.sender, _fundingAmount + _tokenAmount);\r\n        emit Burned(msg.sender, _fundingAmount + _tokenAmount, refundFundingAmount + refundTokenAmount);\r\n        reserve = reserve.sub(refundFundingAmount + refundTokenAmount);\r\n        _sendToPlatform(refundFundingAmount, _fundingAddress);\r\n        msg.sender.transfer(refundTokenAmount);\r\n    }\r\n    \r\n    function _sendToPlatform(uint _amount, address _campaign) internal {\r\n        require(_amount > 0, \"Deposit must be non-zero.\");\r\n        //checkIfRegisteredPlatformOrCampaign\r\n        //sendToCampaignOrPlatform\r\n    }\r\n}",
  "sourcePath": "C:/Users/cedri/OneDrive/Dokumente/GitHub/Dapp-token/contracts/AcrenToken.sol",
  "compiler": {
    "name": "solc",
    "version": "0.6.8+commit.0bbfe453.Emscripten.clang"
  },
  "schemaVersion": "3.0.22",
  "updatedAt": "2020-06-18T15:31:54.441Z",
  "devdoc": {
    "methods": {
      "allowance(address,address)": {
        "details": "See {IERC20-allowance}."
      },
      "approve(address,uint256)": {
        "details": "See {IERC20-approve}.      * Requirements:      * - `spender` cannot be the zero address."
      },
      "balanceOf(address)": {
        "details": "See {IERC20-balanceOf}."
      },
      "calculatePurchaseReturn(uint256,uint256,uint32,uint256)": {
        "details": "given a continuous token supply, reserve token balance, reserve ratio, and a deposit amount (in the reserve token), calculates the return for a given conversion (in the continuous token)     * Formula: Return = _supply * ((1 + _depositAmount / _reserveBalance) ^ (_reserveRatio / MAX_RESERVE_RATIO) - 1) ",
        "params": {
          "_depositAmount": "deposit amount, in reserve token ",
          "_reserveBalance": "total reserve token balance",
          "_reserveRatio": "reserve ratio, represented in ppm, 1-1000000",
          "_supply": "continuous token total supply"
        },
        "returns": {
          "_0": "purchase return amount"
        }
      },
      "calculateSaleReturn(uint256,uint256,uint32,uint256)": {
        "details": "given a continuous token supply, reserve token balance, reserve ratio and a sell amount (in the continuous token), calculates the return for a given conversion (in the reserve token)     * Formula: Return = _reserveBalance * (1 - (1 - _sellAmount / _supply) ^ (1 / (_reserveRatio / MAX_RESERVE_RATIO))) ",
        "params": {
          "_reserveBalance": "total reserve token balance",
          "_reserveRatio": "constant reserve ratio, represented in ppm, 1-1000000",
          "_sellAmount": "sell amount, in the continuous token itself ",
          "_supply": "continuous token total supply"
        },
        "returns": {
          "_0": "sale return amount"
        }
      },
      "decimals()": {
        "details": "Returns the number of decimals used to get its user representation. For example, if `decimals` equals `2`, a balance of `505` tokens should be displayed to a user as `5,05` (`505 / 10 ** 2`).      * Tokens usually opt for a value of 18, imitating the relationship between Ether and Wei. This is the value {ERC20} uses, unless {_setupDecimals} is called.      * NOTE: This information is only used for _display_ purposes: it in no way affects any of the arithmetic of the contract, including {IERC20-balanceOf} and {IERC20-transfer}."
      },
      "decreaseAllowance(address,uint256)": {
        "details": "Atomically decreases the allowance granted to `spender` by the caller.      * This is an alternative to {approve} that can be used as a mitigation for problems described in {IERC20-approve}.      * Emits an {Approval} event indicating the updated allowance.      * Requirements:      * - `spender` cannot be the zero address. - `spender` must have allowance for the caller of at least `subtractedValue`."
      },
      "increaseAllowance(address,uint256)": {
        "details": "Atomically increases the allowance granted to `spender` by the caller.      * This is an alternative to {approve} that can be used as a mitigation for problems described in {IERC20-approve}.      * Emits an {Approval} event indicating the updated allowance.      * Requirements:      * - `spender` cannot be the zero address."
      },
      "name()": {
        "details": "Returns the name of the token."
      },
      "owner()": {
        "details": "Returns the address of the current owner."
      },
      "renounceOwnership()": {
        "details": "Leaves the contract without owner. It will not be possible to call `onlyOwner` functions anymore. Can only be called by the current owner.      * NOTE: Renouncing ownership will leave the contract without an owner, thereby removing any functionality that is only available to the owner."
      },
      "symbol()": {
        "details": "Returns the symbol of the token, usually a shorter version of the name."
      },
      "totalSupply()": {
        "details": "See {IERC20-totalSupply}."
      },
      "transfer(address,uint256)": {
        "details": "See {IERC20-transfer}.      * Requirements:      * - `recipient` cannot be the zero address. - the caller must have a balance of at least `amount`."
      },
      "transferFrom(address,address,uint256)": {
        "details": "See {IERC20-transferFrom}.      * Emits an {Approval} event indicating the updated allowance. This is not required by the EIP. See the note at the beginning of {ERC20};      * Requirements: - `sender` and `recipient` cannot be the zero address. - `sender` must have a balance of at least `amount`. - the caller must have allowance for ``sender``'s tokens of at least `amount`."
      },
      "transferOwnership(address)": {
        "details": "Transfers ownership of the contract to a new account (`newOwner`). Can only be called by the current owner."
      }
    }
  },
  "userdoc": {
    "methods": {}
  }
}