{
  "contractName": "BancorFormula",
  "abi": [
    {
      "inputs": [],
      "name": "version",
      "outputs": [
        {
          "internalType": "string",
          "name": "",
          "type": "string"
        }
      ],
      "stateMutability": "view",
      "type": "function"
    },
    {
      "inputs": [
        {
          "internalType": "uint256",
          "name": "_supply",
          "type": "uint256"
        },
        {
          "internalType": "uint256",
          "name": "_reserveBalance",
          "type": "uint256"
        },
        {
          "internalType": "uint32",
          "name": "_reserveRatio",
          "type": "uint32"
        },
        {
          "internalType": "uint256",
          "name": "_depositAmount",
          "type": "uint256"
        }
      ],
      "name": "calculatePurchaseReturn",
      "outputs": [
        {
          "internalType": "uint256",
          "name": "",
          "type": "uint256"
        }
      ],
      "stateMutability": "view",
      "type": "function"
    },
    {
      "inputs": [
        {
          "internalType": "uint256",
          "name": "_supply",
          "type": "uint256"
        },
        {
          "internalType": "uint256",
          "name": "_reserveBalance",
          "type": "uint256"
        },
        {
          "internalType": "uint32",
          "name": "_reserveRatio",
          "type": "uint32"
        },
        {
          "internalType": "uint256",
          "name": "_sellAmount",
          "type": "uint256"
        }
      ],
      "name": "calculateSaleReturn",
      "outputs": [
        {
          "internalType": "uint256",
          "name": "",
          "type": "uint256"
        }
      ],
      "stateMutability": "view",
      "type": "function"
    }
  ],
  "bytecode": "0x60806040526040518060400160405280600381526020017f302e330000000000000000000000000000000000000000000000000000000000815250600090805190602001906200005192919062000e96565b503480156200005f57600080fd5b50701c35fedd14ffffffffffffffffffffffff60016020608081106200008157fe5b0181905550701b0ce43b323fffffffffffffffffffffff6001602160808110620000a757fe5b01819055507019f0028ec1ffffffffffffffffffffffff6001602260808110620000cd57fe5b01819055507018ded91f0e7fffffffffffffffffffffff6001602360808110620000f357fe5b01819055507017d8ec7f0417ffffffffffffffffffffff60016024608081106200011957fe5b01819055507016ddc6556cdbffffffffffffffffffffff60016025608081106200013f57fe5b01819055507015ecf52776a1ffffffffffffffffffffff60016026608081106200016557fe5b01819055507015060c256cb2ffffffffffffffffffffff60016027608081106200018b57fe5b0181905550701428a2f98d72ffffffffffffffffffffff6001602860808110620001b157fe5b01819055507013545598e5c23fffffffffffffffffffff6001602960808110620001d757fe5b0181905550701288c4161ce1dfffffffffffffffffffff6001602a60808110620001fd57fe5b01819055507011c592761c666fffffffffffffffffffff6001602b608081106200022357fe5b018190555070110a688680a757ffffffffffffffffffff6001602c608081106200024957fe5b0181905550701056f1b5bedf77ffffffffffffffffffff6001602d608081106200026f57fe5b0181905550700faadceceeff8bffffffffffffffffffff6001602e608081106200029557fe5b0181905550700f05dc6b27edadffffffffffffffffffff6001602f60808110620002bb57fe5b0181905550700e67a5a25da4107fffffffffffffffffff6001603060808110620002e157fe5b0181905550700dcff115b14eedffffffffffffffffffff60016031608081106200030757fe5b0181905550700d3e7a392431239fffffffffffffffffff60016032608081106200032d57fe5b0181905550700cb2ff529eb71e4fffffffffffffffffff60016033608081106200035357fe5b0181905550700c2d415c3db974afffffffffffffffffff60016034608081106200037957fe5b0181905550700bad03e7d883f69bffffffffffffffffff60016035608081106200039f57fe5b0181905550700b320d03b2c343d5ffffffffffffffffff6001603660808110620003c557fe5b0181905550700abc25204e02828dffffffffffffffffff6001603760808110620003eb57fe5b0181905550700a4b16f74ee4bb207fffffffffffffffff60016038608081106200041157fe5b01819055507009deaf736ac1f569ffffffffffffffffff60016039608081106200043757fe5b0181905550700976bd9952c7aa957fffffffffffffffff6001603a608081106200045d57fe5b01819055507009131271922eaa606fffffffffffffffff6001603b608081106200048357fe5b01819055507008b380f3558668c46fffffffffffffffff6001603c60808110620004a957fe5b0181905550700857ddf0117efa215bffffffffffffffff6001603d60808110620004cf57fe5b01819055507007ffffffffffffffffffffffffffffffff6001603e60808110620004f557fe5b01819055507007abbf6f6abb9d087fffffffffffffffff6001603f608081106200051b57fe5b018190555070075af62cbac95f7dfa7fffffffffffffff60016040608081106200054157fe5b018190555070070d7fb7452e187ac13fffffffffffffff60016041608081106200056757fe5b01819055507006c3390ecc8af379295fffffffffffffff60016042608081106200058d57fe5b018190555070067c00a3b07ffc01fd6fffffffffffffff6001604360808110620005b357fe5b0181905550700637b647c39cbb9d3d27ffffffffffffff6001604460808110620005d957fe5b01819055507005f63b1fc104dbd39587ffffffffffffff6001604560808110620005ff57fe5b01819055507005b771955b36e12f7235ffffffffffffff60016046608081106200062557fe5b018190555070057b3d49dda84556d6f6ffffffffffffff60016047608081106200064b57fe5b018190555070054183095b2c8ececf30ffffffffffffff60016048608081106200067157fe5b018190555070050a28be635ca2b888f77fffffffffffff60016049608081106200069757fe5b01819055507004d5156639708c9db33c3fffffffffffff6001604a60808110620006bd57fe5b01819055507004a23105873875bd52dfdfffffffffffff6001604b60808110620006e357fe5b0181905550700471649d87199aa990756fffffffffffff6001604c608081106200070957fe5b01819055507004429a21a029d4c1457cfbffffffffffff6001604d608081106200072f57fe5b0181905550700415bc6d6fb7dd71af2cb3ffffffffffff6001604e608081106200075557fe5b01819055507003eab73b3bbfe282243ce1ffffffffffff6001604f608081106200077b57fe5b01819055507003c1771ac9fb6b4c18e229ffffffffffff6001605060808110620007a157fe5b0181905550700399e96897690418f785257fffffffffff6001605160808110620007c757fe5b0181905550700373fc456c53bb779bf0ea9fffffffffff6001605260808110620007ed57fe5b018190555070034f9e8e490c48e67e6ab8bfffffffffff60016053608081106200081357fe5b018190555070032cbfd4a7adc790560b3337ffffffffff60016054608081106200083957fe5b018190555070030b50570f6e5d2acca94613ffffffffff60016055608081106200085f57fe5b01819055507002eb40f9f620fda6b56c2861ffffffffff60016056608081106200088557fe5b01819055507002cc8340ecb0d0f520a6af58ffffffffff6001605760808110620008ab57fe5b01819055507002af09481380a0a35cf1ba02ffffffffff6001605860808110620008d157fe5b0181905550700292c5bdd3b92ec810287b1b3fffffffff6001605960808110620008f757fe5b0181905550700277abdcdab07d5a77ac6d6b9fffffffff6001605a608081106200091d57fe5b018190555070025daf6654b1eaa55fd64df5efffffffff6001605b608081106200094357fe5b0181905550700244c49c648baa98192dce88b7ffffffff6001605c608081106200096957fe5b018190555070022ce03cd5619a311b2471268bffffffff6001605d608081106200098f57fe5b0181905550700215f77c045fbe885654a44a0fffffffff6001605e60808110620009b557fe5b01819055507001ffffffffffffffffffffffffffffffff6001605f60808110620009db57fe5b01819055507001eaefdbdaaee7421fc4d3ede5ffffffff600160606080811062000a0157fe5b01819055507001d6bd8b2eb257df7e8ca57b09bfffffff600160616080811062000a2757fe5b01819055507001c35fedd14b861eb0443f7f133fffffff600160626080811062000a4d57fe5b01819055507001b0ce43b322bcde4a56e8ada5afffffff600160636080811062000a7357fe5b018190555070019f0028ec1fff007f5a195a39dfffffff600160646080811062000a9957fe5b018190555070018ded91f0e72ee74f49b15ba527ffffff600160656080811062000abf57fe5b018190555070017d8ec7f04136f4e5615fd41a63ffffff600160666080811062000ae557fe5b018190555070016ddc6556cdb84bdc8d12d22e6fffffff600160676080811062000b0b57fe5b018190555070015ecf52776a1155b5bd8395814f7fffff600160686080811062000b3157fe5b018190555070015060c256cb23b3b3cc3754cf40ffffff600160696080811062000b5757fe5b01819055507001428a2f98d728ae223ddab715be3fffff6001606a6080811062000b7d57fe5b018190555070013545598e5c23276ccf0ede68034fffff6001606b6080811062000ba357fe5b01819055507001288c4161ce1d6f54b7f61081194fffff6001606c6080811062000bc957fe5b018190555070011c592761c666aa641d5a01a40f17ffff6001606d6080811062000bef57fe5b0181905550700110a688680a7530515f3e6e6cfdcdffff6001606e6080811062000c1557fe5b01819055507001056f1b5bedf75c6bcb2ce8aed428ffff6001606f6080811062000c3b57fe5b01819055506ffaadceceeff8a0890f3875f008277fff600160706080811062000c6057fe5b01819055506ff05dc6b27edad306388a600f6ba0bfff600160716080811062000c8557fe5b01819055506fe67a5a25da41063de1495d5b18cdbfff600160726080811062000caa57fe5b01819055506fdcff115b14eedde6fc3aa5353f2e4fff600160736080811062000ccf57fe5b01819055506fd3e7a3924312399f9aae2e0f868f8fff600160746080811062000cf457fe5b01819055506fcb2ff529eb71e41582cccd5a1ee26fff600160756080811062000d1957fe5b01819055506fc2d415c3db974ab32a51840c0b67edff600160766080811062000d3e57fe5b01819055506fbad03e7d883f69ad5b0a186184e06bff600160776080811062000d6357fe5b01819055506fb320d03b2c343d4829abd6075f0cc5ff600160786080811062000d8857fe5b01819055506fabc25204e02828d73c6e80bcdb1a95bf600160796080811062000dad57fe5b01819055506fa4b16f74ee4bb2040a1ec6c15fbbf2df6001607a6080811062000dd257fe5b01819055506f9deaf736ac1f569deb1b5ae3f36c130f6001607b6080811062000df757fe5b01819055506f976bd9952c7aa957f5937d790ef650376001607c6080811062000e1c57fe5b01819055506f9131271922eaa6064b73a22d0bd4f2bf6001607d6080811062000e4157fe5b01819055506f8b380f3558668c46c91c49a2f8e967b96001607e6080811062000e6657fe5b01819055506f857ddf0117efa215952912839f6473e66001607f6080811062000e8b57fe5b018190555062000f45565b828054600181600116156101000203166002900490600052602060002090601f016020900481019282601f1062000ed957805160ff191683800117855562000f0a565b8280016001018555821562000f0a579182015b8281111562000f0957825182559160200191906001019062000eec565b5b50905062000f19919062000f1d565b5090565b62000f4291905b8082111562000f3e57600081600090555060010162000f24565b5090565b90565b611bab8062000f556000396000f3fe608060405234801561001057600080fd5b50600436106100415760003560e01c806329a00e7c1461004657806349f9b0f7146100ac57806354fd4d5014610112575b600080fd5b6100966004803603608081101561005c57600080fd5b810190808035906020019092919080359060200190929190803563ffffffff16906020019092919080359060200190929190505050610195565b6040518082815260200191505060405180910390f35b6100fc600480360360808110156100c257600080fd5b810190808035906020019092919080359060200190929190803563ffffffff1690602001909291908035906020019092919050505061030a565b6040518082815260200191505060405180910390f35b61011a6104b3565b6040518080602001828103825283818151815260200191508051906020019080838360005b8381101561015a57808201518184015260208101905061013f565b50505050905090810190601f1680156101875780820380516001836020036101000a031916815260200191505b509250505060405180910390f35b600080851180156101a65750600084115b80156101b8575060008363ffffffff16115b80156101d35750620f424063ffffffff168363ffffffff1611155b610245576040517f08c379a000000000000000000000000000000000000000000000000000000000815260040180806020018281038252600f8152602001807f496e76616c696420696e707574732e000000000000000000000000000000000081525060200191505060405180910390fd5b60008214156102575760009050610302565b620f424063ffffffff168363ffffffff16141561029a5761029384610285848861055190919063ffffffff16565b6105d790919063ffffffff16565b9050610302565b60008060006102b2878661062190919063ffffffff16565b90506102c3818888620f42406106a9565b809350819450505060008260ff166102e4858b61055190919063ffffffff16565b901c90506102fb898261087d90919063ffffffff16565b9450505050505b949350505050565b6000808511801561031b5750600084115b801561032d575060008363ffffffff16115b80156103485750620f424063ffffffff168363ffffffff1611155b80156103545750848211155b6103c6576040517f08c379a000000000000000000000000000000000000000000000000000000000815260040180806020018281038252600f8152602001807f496e76616c696420696e707574732e000000000000000000000000000000000081525060200191505060405180910390fd5b60008214156103d857600090506104ab565b848214156103e8578390506104ab565b620f424063ffffffff168363ffffffff16141561042b5761042485610416848761055190919063ffffffff16565b6105d790919063ffffffff16565b90506104ab565b6000806000610443858961087d90919063ffffffff16565b90506104548882620f4240896106a9565b80935081945050506000610471848961055190919063ffffffff16565b905060008360ff1689901b90506104a385610495838561087d90919063ffffffff16565b6105d790919063ffffffff16565b955050505050505b949350505050565b60008054600181600116156101000203166002900480601f0160208091040260200160405190810160405280929190818152602001828054600181600116156101000203166002900480156105495780601f1061051e57610100808354040283529160200191610549565b820191906000526020600020905b81548152906001019060200180831161052c57829003601f168201915b505050505081565b60008083141561056457600090506105d1565b600082840290508284828161057557fe5b04146105cc576040517f08c379a0000000000000000000000000000000000000000000000000000000008152600401808060200182810382526021815260200180611b556021913960400191505060405180910390fd5b809150505b92915050565b600061061983836040518060400160405280601a81526020017f536166654d6174683a206469766973696f6e206279207a65726f0000000000008152506108c7565b905092915050565b60008082840190508381101561069f576040517f08c379a000000000000000000000000000000000000000000000000000000000815260040180806020018281038252601b8152602001807f536166654d6174683a206164646974696f6e206f766572666c6f77000000000081525060200191505060405180910390fd5b8091505092915050565b6000807002000000000000000000000000000000008610610732576040517f08c379a00000000000000000000000000000000000000000000000000000000081526004018080602001828103825260188152602001807f626173654e2065786365656473206d61782076616c75652e000000000000000081525060200191505060405180910390fd5b848610156107a8576040517f08c379a000000000000000000000000000000000000000000000000000000000815260040180806020018281038252601c8152602001807f4261736573203c203120617265206e6f7420737570706f727465642e0000000081525060200191505060405180910390fd5b600080866f800000000000000000000000000000008902816107c657fe5b04905070015bf0a8b1457695355fb8ac404e7a79e38110156107f2576107eb8161098d565b91506107fe565b6107fb81610f1d565b91505b60008563ffffffff168763ffffffff1684028161081757fe5b04905070080000000000000000000000000000000081101561084a5761083c81611045565b607f94509450505050610874565b6000610855826115bf565b905061086a81607f0360ff1683901c82611674565b8195509550505050505b94509492505050565b60006108bf83836040518060400160405280601e81526020017f536166654d6174683a207375627472616374696f6e206f766572666c6f770000815250611a12565b905092915050565b60008083118290610973576040517f08c379a00000000000000000000000000000000000000000000000000000000081526004018080602001828103825283818151815260200191508051906020019080838360005b8381101561093857808201518184015260208101905061091d565b50505050905090810190601f1680156109655780820380516001836020036101000a031916815260200191505b509250505060405180910390fd5b50600083858161097f57fe5b049050809150509392505050565b6000806000905060008060006fd3094c70f034de4b96ff7d5b6f99fcd886106109f4576f40000000000000000000000000000000840193506fd3094c70f034de4b96ff7d5b6f99fcd86f800000000000000000000000000000008702816109f057fe5b0495505b6fa45af1e1f40c333b3de1db4dd55f29a78610610a4f576f20000000000000000000000000000000840193506fa45af1e1f40c333b3de1db4dd55f29a76f80000000000000000000000000000000870281610a4b57fe5b0495505b6f910b022db7ae67ce76b441c27035c6a18610610aaa576f10000000000000000000000000000000840193506f910b022db7ae67ce76b441c27035c6a16f80000000000000000000000000000000870281610aa657fe5b0495505b6f88415abbe9a76bead8d00cf112e4d4a88610610b05576f08000000000000000000000000000000840193506f88415abbe9a76bead8d00cf112e4d4a86f80000000000000000000000000000000870281610b0157fe5b0495505b6f84102b00893f64c705e841d5d4064bd38610610b60576f04000000000000000000000000000000840193506f84102b00893f64c705e841d5d4064bd36f80000000000000000000000000000000870281610b5c57fe5b0495505b6f8204055aaef1c8bd5c3259f4822735a28610610bbb576f02000000000000000000000000000000840193506f8204055aaef1c8bd5c3259f4822735a26f80000000000000000000000000000000870281610bb757fe5b0495505b6f810100ab00222d861931c15e39b44e998610610c16576f01000000000000000000000000000000840193506f810100ab00222d861931c15e39b44e996f80000000000000000000000000000000870281610c1257fe5b0495505b6f808040155aabbbe9451521693554f7338610610c70576e800000000000000000000000000000840193506f808040155aabbbe9451521693554f7336f80000000000000000000000000000000870281610c6c57fe5b0495505b6f80000000000000000000000000000000860392508291506f8000000000000000000000000000000083840281610ca357fe5b0490507001000000000000000000000000000000008370010000000000000000000000000000000003830281610cd557fe5b04840193506f8000000000000000000000000000000081830281610cf557fe5b049150700200000000000000000000000000000000836faaaaaaaaaaaaaaaaaaaaaaaaaaaaaaaa03830281610d2657fe5b04840193506f8000000000000000000000000000000081830281610d4657fe5b049150700300000000000000000000000000000000836f9999999999999999999999999999999903830281610d7757fe5b04840193506f8000000000000000000000000000000081830281610d9757fe5b049150700400000000000000000000000000000000836f9249249249249249249249249249249203830281610dc857fe5b04840193506f8000000000000000000000000000000081830281610de857fe5b049150700500000000000000000000000000000000836f8e38e38e38e38e38e38e38e38e38e38e03830281610e1957fe5b04840193506f8000000000000000000000000000000081830281610e3957fe5b049150700600000000000000000000000000000000836f8ba2e8ba2e8ba2e8ba2e8ba2e8ba2e8b03830281610e6a57fe5b04840193506f8000000000000000000000000000000081830281610e8a57fe5b049150700700000000000000000000000000000000836f89d89d89d89d89d89d89d89d89d89d8903830281610ebb57fe5b04840193506f8000000000000000000000000000000081830281610edb57fe5b049150700800000000000000000000000000000000836f8888888888888888888888888888888803830281610f0c57fe5b048401935083945050505050919050565b6000806000905060008390507001000000000000000000000000000000008110610f8a576000610f656f800000000000000000000000000000008381610f5f57fe5b04611ad2565b90508060ff1682901c91506f800000000000000000000000000000008160ff16029250505b6f80000000000000000000000000000000811115611010576000607f90505b60008160ff16111561100e576f8000000000000000000000000000000082830281610fd057fe5b049150700100000000000000000000000000000000821061100257600182901c91506001810360ff166001901b830192505b80600190039050610fa9565b505b6f05b9de1d10bf4103d647b0955897ba806f03f80fe03f80fe03f80fe03f80fe03f883028161103b57fe5b0492505050919050565b600080600090506000806f10000000000000000000000000000000858161106857fe5b0691508190506f800000000000000000000000000000008282028161108957fe5b0490506710e1b3be415a00008102830192506f80000000000000000000000000000000828202816110b657fe5b0490506705a0913f6b1e00008102830192506f80000000000000000000000000000000828202816110e357fe5b049050670168244fdac780008102830192506f800000000000000000000000000000008282028161111057fe5b049050664807432bc180008102830192506f800000000000000000000000000000008282028161113c57fe5b049050660c0135dca040008102830192506f800000000000000000000000000000008282028161116857fe5b0490506601b707b1cdc0008102830192506f800000000000000000000000000000008282028161119457fe5b0490506536e0f639b8008102830192506f80000000000000000000000000000000828202816111bf57fe5b049050650618fee9f8008102830192506f80000000000000000000000000000000828202816111ea57fe5b049050649c197dcc008102830192506f800000000000000000000000000000008282028161121457fe5b049050640e30dce4008102830192506f800000000000000000000000000000008282028161123e57fe5b04905064012ebd13008102830192506f800000000000000000000000000000008282028161126857fe5b0490506317499f008102830192506f800000000000000000000000000000008282028161129157fe5b0490506301a9d4808102830192506f80000000000000000000000000000000828202816112ba57fe5b049050621c63808102830192506f80000000000000000000000000000000828202816112e257fe5b0490506201c6388102830192506f800000000000000000000000000000008282028161130a57fe5b049050611ab88102830192506f800000000000000000000000000000008282028161133157fe5b04905061017c8102830192506f800000000000000000000000000000008282028161135857fe5b04905060148102830192506f800000000000000000000000000000008282028161137e57fe5b04905060018102830192506f80000000000000000000000000000000826721c3677c82b4000085816113ac57fe5b040101925060006f100000000000000000000000000000008616146113fc5770018ebef9eac820ae8682b9793ac6d1e7767001c3d6a24ed82218787d624d3e5eba95f98402816113f857fe5b0492505b60006f20000000000000000000000000000000861614611447577001368b2fc6f9609fe7aceb46aa619baed470018ebef9eac820ae8682b9793ac6d1e77884028161144357fe5b0492505b60006f40000000000000000000000000000000861614611491576fbc5ab1b16779be3575bd8f0520a9f21f7001368b2fc6f9609fe7aceb46aa619baed584028161148d57fe5b0492505b60006f800000000000000000000000000000008616146114da576f454aaa8efe072e7f6ddbab84b40a55c96fbc5ab1b16779be3575bd8f0520a9f21e8402816114d657fe5b0492505b6000700100000000000000000000000000000000861614611524576f0960aadc109e7a3bf4578099615711ea6f454aaa8efe072e7f6ddbab84b40a55c584028161152057fe5b0492505b600070020000000000000000000000000000000086161461156d576e2bf84208204f5977f9a8cf01fdce3d6f0960aadc109e7a3bf4578099615711d784028161156957fe5b0492505b60007004000000000000000000000000000000008616146115b4576d03c6ab775dd0b95b4cbee7e65d116e2bf84208204f5977f9a8cf01fdc3078402816115b057fe5b0492505b829350505050919050565b600080602090506000607f90505b8060ff166001830160ff16101561161c576000600282840160ff16816115ef57fe5b0490508460018260ff166080811061160357fe5b01541061161257809250611616565b8091505b506115cd565b8360018260ff166080811061162d57fe5b01541061163e57809250505061166f565b8360018360ff166080811061164f57fe5b01541061166057819250505061166f565b600061166857fe5b6000925050505b919050565b60008083905060008090508360ff16858302901c91506f03442c4e6074a82f1797f72ac00000008202810190508360ff16858302901c91506f0116b96f757c380fb287fd0e400000008202810190508360ff16858302901c91506e45ae5bdd5f0e03eca1ff43900000008202810190508360ff16858302901c91506e0defabf91302cd95b9ffda500000008202810190508360ff16858302901c91506e02529ca9832b22439efff9b80000008202810190508360ff16858302901c91506d54f1cf12bd04e516b6da880000008202810190508360ff16858302901c91506d0a9e39e257a09ca2d6db510000008202810190508360ff16858302901c91506d012e066e7b839fa050c3090000008202810190508360ff16858302901c91506c1e33d7d926c329a1ad1a8000008202810190508360ff16858302901c91506c02bee513bdb4a6b19b5f8000008202810190508360ff16858302901c91506b3a9316fa79b88eccf2a000008202810190508360ff16858302901c91506b048177ebe1fa8123752000008202810190508360ff16858302901c91506a5263fe90242dcbacf000008202810190508360ff16858302901c91506a057e22099c030d941000008202810190508360ff16858302901c91506957e22099c030d94100008202810190508360ff16858302901c915069052b6b545699763100008202810190508360ff16858302901c9150684985f67696bf7480008202810190508360ff16858302901c91506803dea12ea99e4980008202810190508360ff16858302901c91506731880f2214b6e0008202810190508360ff16858302901c915067025bcff56eb360008202810190508360ff16858302901c9150661b722e10ab10008202810190508360ff16858302901c91506601317c700770008202810190508360ff16858302901c9150650cba84aafa008202810190508360ff16858302901c91506482573a0a008202810190508360ff16858302901c91506405035ad9008202810190508360ff16858302901c9150632f881b008202810190508360ff16858302901c91506301b293408202810190508360ff16858302901c9150620efc408202810190508360ff16858302901c9150617fe08202810190508360ff16858302901c91506104208202810190508360ff16858302901c915060218202810190508360ff16858302901c915060018202810190508360ff166001901b856f0688589cc0e9505e2f2fee55800000008381611a0557fe5b0401019250505092915050565b6000838311158290611abf576040517f08c379a00000000000000000000000000000000000000000000000000000000081526004018080602001828103825283818151815260200191508051906020019080838360005b83811015611a84578082015181840152602081019050611a69565b50505050905090810190601f168015611ab15780820380516001836020036101000a031916815260200191505b509250505060405180910390fd5b5060008385039050809150509392505050565b600080600090506000839050610100811015611b09575b6001811115611b0457600181901c9050600182019150611ae9565b611b4a565b6000608090505b60008160ff161115611b48578060ff166001901b8210611b39578060ff1682901c915080831792505b60018160ff16901c9050611b10565b505b819250505091905056fe536166654d6174683a206d756c7469706c69636174696f6e206f766572666c6f77a2646970667358221220f8a251e90fe102bbcf151c5141a3f7f86586a884dcad9ddda3a4569a8a97589664736f6c63430006080033",
  "source": "pragma solidity 0.6.8;\r\n\r\nimport \"../oz/SafeMath.sol\";\r\nimport \"./Power.sol\"; // Efficient power function.\r\n\r\n\r\n/**\r\n* @title Bancor formula by Bancor\r\n*\r\n* Licensed to the Apache Software Foundation (ASF) under one or more contributor license agreements;\r\n* and to You under the Apache License, Version 2.0. \"\r\n*/\r\ncontract BancorFormula is Power {\r\n    using SafeMath for uint256;\r\n    uint32 private constant MAX_RESERVE_RATIO = 1000000;\r\n\r\n    /**\r\n    * @dev given a continuous token supply, reserve token balance, reserve ratio, and a deposit amount (in the reserve token),\r\n    * calculates the return for a given conversion (in the continuous token)\r\n    *\r\n    * Formula:\r\n    * Return = _supply * ((1 + _depositAmount / _reserveBalance) ^ (_reserveRatio / MAX_RESERVE_RATIO) - 1)\r\n    *\r\n    * @param _supply              continuous token total supply\r\n    * @param _reserveBalance    total reserve token balance\r\n    * @param _reserveRatio     reserve ratio, represented in ppm, 1-1000000\r\n    * @param _depositAmount       deposit amount, in reserve token\r\n    *\r\n    *  @return purchase return amount\r\n    */\r\n    function calculatePurchaseReturn(\r\n        uint256 _supply,\r\n        uint256 _reserveBalance,\r\n        uint32 _reserveRatio,\r\n        uint256 _depositAmount) public view returns (uint256)\r\n    {\r\n        // validate input\r\n        require(_supply > 0 && _reserveBalance > 0 && _reserveRatio > 0 && _reserveRatio <= MAX_RESERVE_RATIO, \"Invalid inputs.\");\r\n        // special case for 0 deposit amount\r\n        if (_depositAmount == 0) {\r\n            return 0;\r\n        }\r\n        // special case if the ratio = 100%\r\n        if (_reserveRatio == MAX_RESERVE_RATIO) {\r\n            return _supply.mul(_depositAmount).div(_reserveBalance);\r\n        }\r\n        uint256 result;\r\n        uint8 precision;\r\n        uint256 baseN = _depositAmount.add(_reserveBalance);\r\n        (result, precision) = power(\r\n            baseN, _reserveBalance, _reserveRatio, MAX_RESERVE_RATIO\r\n        );\r\n        uint256 newTokenSupply = _supply.mul(result) >> precision;\r\n        return newTokenSupply.sub(_supply);\r\n    }\r\n\r\n    /**\r\n    * @dev given a continuous token supply, reserve token balance, reserve ratio and a sell amount (in the continuous token),\r\n    * calculates the return for a given conversion (in the reserve token)\r\n    *\r\n    * Formula:\r\n    * Return = _reserveBalance * (1 - (1 - _sellAmount / _supply) ^ (1 / (_reserveRatio / MAX_RESERVE_RATIO)))\r\n    *\r\n    * @param _supply              continuous token total supply\r\n    * @param _reserveBalance    total reserve token balance\r\n    * @param _reserveRatio     constant reserve ratio, represented in ppm, 1-1000000\r\n    * @param _sellAmount          sell amount, in the continuous token itself\r\n    *\r\n    * @return sale return amount\r\n    */\r\n    function calculateSaleReturn(\r\n        uint256 _supply,\r\n        uint256 _reserveBalance,\r\n        uint32 _reserveRatio,\r\n        uint256 _sellAmount) public view returns (uint256)\r\n    {\r\n        // validate input\r\n        require(_supply > 0 && _reserveBalance > 0 && _reserveRatio > 0 && _reserveRatio <= MAX_RESERVE_RATIO && _sellAmount <= _supply, \"Invalid inputs.\");\r\n        // special case for 0 sell amount\r\n        if (_sellAmount == 0) {\r\n            return 0;\r\n        }\r\n        // special case for selling the entire supply\r\n        if (_sellAmount == _supply) {\r\n            return _reserveBalance;\r\n        }\r\n        // special case if the ratio = 100%\r\n        if (_reserveRatio == MAX_RESERVE_RATIO) {\r\n            return _reserveBalance.mul(_sellAmount).div(_supply);\r\n        }\r\n        uint256 result;\r\n        uint8 precision;\r\n        uint256 baseD = _supply.sub(_sellAmount);\r\n        (result, precision) = power(\r\n            _supply, baseD, MAX_RESERVE_RATIO, _reserveRatio\r\n        );\r\n        uint256 oldBalance = _reserveBalance.mul(result);\r\n        uint256 newBalance = _reserveBalance << precision;\r\n        return oldBalance.sub(newBalance).div(result);\r\n    }\r\n}\r\n\r\n\r\n\r\n",
  "sourcePath": "C:\\Users\\cedri\\OneDrive\\Dokumente\\GitHub\\Dapp-token\\contracts\\bancor\\BancorFormula.sol",
  "compiler": {
    "name": "solc",
    "version": "0.6.8+commit.0bbfe453.Emscripten.clang"
  },
  "schemaVersion": "3.0.22",
  "updatedAt": "2020-06-18T15:46:45.601Z",
  "devdoc": {
    "methods": {
      "calculatePurchaseReturn(uint256,uint256,uint32,uint256)": {
        "details": "given a continuous token supply, reserve token balance, reserve ratio, and a deposit amount (in the reserve token), calculates the return for a given conversion (in the continuous token)     * Formula: Return = _supply * ((1 + _depositAmount / _reserveBalance) ^ (_reserveRatio / MAX_RESERVE_RATIO) - 1) ",
        "params": {
          "_depositAmount": "deposit amount, in reserve token ",
          "_reserveBalance": "total reserve token balance",
          "_reserveRatio": "reserve ratio, represented in ppm, 1-1000000",
          "_supply": "continuous token total supply"
        },
        "returns": {
          "_0": "purchase return amount"
        }
      },
      "calculateSaleReturn(uint256,uint256,uint32,uint256)": {
        "details": "given a continuous token supply, reserve token balance, reserve ratio and a sell amount (in the continuous token), calculates the return for a given conversion (in the reserve token)     * Formula: Return = _reserveBalance * (1 - (1 - _sellAmount / _supply) ^ (1 / (_reserveRatio / MAX_RESERVE_RATIO))) ",
        "params": {
          "_reserveBalance": "total reserve token balance",
          "_reserveRatio": "constant reserve ratio, represented in ppm, 1-1000000",
          "_sellAmount": "sell amount, in the continuous token itself ",
          "_supply": "continuous token total supply"
        },
        "returns": {
          "_0": "sale return amount"
        }
      }
    },
    "title": "Bancor formula by Bancor  * Licensed to the Apache Software Foundation (ASF) under one or more contributor license agreements; and to You under the Apache License, Version 2.0. \""
  },
  "userdoc": {
    "methods": {}
  }
}